:020000040800F2
:1000000000000220252C0008292A00082F2A0008B9
:10001000352A00083B2A0008412A00080000000099
:10002000000000000000000000000000472A000857
:10003000552A000800000000632A0008712A000801
:10004000752C0008752C0008752C0008752C00080C
:10005000752C0008752C0008752C0008752C0008FC
:10006000752C0008752C0008752C0008752C0008EC
:10007000752C0008752C0008752C0008752C0008DC
:10008000752C0008752C0008752C00087D2A0008C6
:10009000912A0008752C0008752C0008A52A000874
:1000A000752C0008752C0008752C0008752C0008AC
:1000B000752C0008B92A0008752C0008752C00085A
:1000C000752C0008752C0008752C0008752C00088C
:1000D000752C0008752C0008CD2A0008752C000826
:1000E000E12A0008752C0008752C0008752C000802
:1000F000752C0008752C0008752C0008752C00085C
:10010000752C0008752C0008752C0008752C00084B
:10011000752C0008752C0008752C0008752C00083B
:10012000752C0008752C0008752C0008752C00082B
:10013000752C00080000000000000000752C00086D
:10014000752C0008752C0008752C0008752C00080B
:10015000752C0008752C0008752C0008752C0008FB
:10016000752C0008752C0008752C0008752C0008EB
:10017000752C0008752C0008752C00080000000084
:1001800000000000752C00080000000000000000C6
:10019000752C00080000000000000000752C00080D
:1001A000000000000000000000000000752C0008A6
:1001B000752C0008752C0008752C0008752C00089B
:0401C000752C000892
:1001D00010B5054C237833B9044B13B10448AFF381
:1001E00000800123237010BD70000020000000007B
:1001F0005C84000808B5034B1BB103490348AFF307
:10020000008008BD00000000740000205C8400082D
:1002100001F0FF01102A2BDB10F0070F08D010F8B7
:10022000013B013A8B422DD010F0070F42B3F6D1BB
:10023000F0B441EA012141EA014122F007047FF0D4
:1002400000070023F0E80256083C85EA010586EA2B
:10025000010685FA47F5A3FA87F586FA47F6A5FA67
:1002600087F68EB9EED1F0BC01F0FF0102F0070273
:1002700032B110F8013B013A83EA010313B1F8D11E
:100280000020704701387047002D06BF35460338FF
:10029000073815F0010F07D1013015F4807F02BF38
:1002A000013015F4C03F0130F0BC0138704700BF89
:1002B00053B94AB9002908BF00281CBF4FF0FF31CD
:1002C0004FF0FF3000F074B9ADF1080C6DE904CEC9
:1002D00000F006F8DDF804E0DDE9022304B0704721
:1002E0002DE9F047089D04468E46002B4DD18A42E9
:1002F000944669D9B2FA82F252B101FA02F3C2F11C
:10030000200120FA01F10CFA02FC41EA030E9440AC
:100310004FEA1C48210CBEFBF8F61FFA8CF708FBCD
:1003200016E341EA034306FB07F199420AD91CEBA5
:10033000030306F1FF3080F01F81994240F21C81D7
:10034000023E63445B1AA4B2B3FBF8F008FB10331F
:1003500044EA034400FB07F7A7420AD91CEB040454
:1003600000F1FF3380F00A81A74240F20781644424
:10037000023840EA0640E41B00261DB1D4400023A9
:10038000C5E900433146BDE8F0878B4209D9002D0D
:1003900000F0EF800026C5E9000130463146BDE897
:1003A000F087B3FA83F6002E4AD18B4202D3824201
:1003B00000F2F980841A61EB030301209E46002DB0
:1003C000E0D0C5E9004EDDE702B9FFDEB2FA82F205
:1003D000002A40F09280A1EB0C014FEA1C471FFA63
:1003E0008CFE0126200CB1FBF7F307FB131140EA4A
:1003F00001410EFB03F0884208D91CEB010103F117
:10040000FF3802D2884200F2CB804346091AA4B2D8
:10041000B1FBF7F007FB101144EA01440EFB00FEAC
:10042000A64508D91CEB040400F1FF3102D2A64511
:1004300000F2BB800846A4EB0E0440EA03409CE7B0
:10044000C6F12007B34022FA07FC4CEA030C20FA5D
:1004500007F401FA06F31C43F9404FEA1C4900FA7D
:1004600006F3B1FBF9F8200C1FFA8CFE09FB1811FA
:1004700040EA014108FB0EF0884202FA06F20BD96D
:100480001CEB010108F1FF3A80F08880884240F2BD
:100490008580A8F102086144091AA4B2B1FBF9F001
:1004A00009FB101144EA014100FB0EFE8E4508D9FC
:1004B0001CEB010100F1FF346CD28E456AD9023881
:1004C000614440EA0840A0FB0294A1EB0E01A14266
:1004D000C846A64656D353D05DB1B3EB080261EBD4
:1004E0000E0101FA07F722FA06F3F1401F43C5E9AE
:1004F000007100263146BDE8F087C2F12003D840E4
:100500000CFA02FC21FA03F3914001434FEA1C4725
:100510001FFA8CFEB3FBF7F007FB10360B0C43EA17
:10052000064300FB0EF69E4204FA02F408D91CEBC7
:10053000030300F1FF382FD29E422DD902386344C5
:100540009B1B89B2B3FBF7F607FB163341EA034165
:1005500006FB0EF38B4208D91CEB010106F1FF38B4
:1005600016D28B4214D9023E6144C91A46EA0046AB
:1005700038E72E46284605E70646E3E61846F8E63D
:100580004B45A9D2B9EB020864EB0C0E0138A3E786
:100590004646EAE7204694E74046D1E7D0467BE767
:1005A000023B614432E7304609E76444023842E7DF
:1005B000704700BF80B584B000AFB9607A603B601F
:1005C0000346FB730E4805F057FF7B689AB240F66E
:1005D000B833B9680A4805F03DFB3B68002B0AD0E8
:1005E000074805F07DFF3B689AB240F6B833B9681A
:1005F000034805F0C1FB00BF1037BD4680BD00BFFA
:10060000FC00002080B582B000AF78603960012224
:100610003968786806F052FC034618460837BD462C
:1006200080BD000080B582B000AF0346FB80FB8830
:10063000402B1BD140210F4803F0C2FD0346002B85
:1006400006D10D4B1B7843F00103DAB20A4B1A7046
:100650004021084803F0B4FD0346002B06D0064BAA
:100660001B7823F00103DAB2034B1A7000BF08377E
:10067000BD4680BD000402405C04002080B500AF90
:10068000084806F097FE00224FF40071064803F078
:10069000AFFD01224FF40071034803F0A9FD00BF34
:1006A00080BD00BF748400080004024080B582B0A1
:1006B00000AF78607B68DBB21A464FF48071034864
:1006C00003F096FD00BF0837BD4680BD0004024020
:1006D00080B483B000AF78607B68D3ED007AFCEE25
:1006E000E77A17EE902A7B685A617B685B6907EEB0
:1006F000903AF8EE677A7B68C3ED117A7B68D3EDA8
:10070000117AFCEEE77A17EE902A7B689A647B6890
:100710000022DA647B6800221A647B680022DA63B4
:100720007B68002283F8382000BF0C37BD465DF897
:10073000047B704780B584B000AF78607B68002B85
:1007400039D01F4BFB60FB681B6A002B11D0FB6884
:100750009B687A68D243D20FD2B2104698477B6822
:10076000002B02DD4FF0FF3200E00122FB68DA616E
:100770000EE0FB689B687A68D20F104698477B684A
:10078000002B01DD012201E04FF0FF32FB68DA614E
:100790007B68002BB8BF5B421A46FB685A63F86857
:1007A000FFF796FF074B1B78DBB243F00103DAB289
:1007B000044B1A7000E000BF1037BD4680BD00BF7B
:1007C0000C040020EE04002080B584B000AF7860F7
:1007D0007968204806F068FD1F4BFB60FB689B6949
:1007E0007A68D31ABB60B9681C4806F05DFDBB6827
:1007F000002B2BD0FB689B68BA68D20F1046984735
:10080000BB68002B01DD012201E04FF0FF32FB68E5
:10081000DA61BB68002BB8BF5B421A46FB685A63BB
:10082000FB685B6B19460D4806F03EFDF868FFF764
:100830004FFFB968094806F037FD094B1B78DBB25A
:1008400043F00103DAB2064B1A7000E000BF103724
:10085000BD4680BD808400080C04002094840008FC
:10086000EE04002080B483B000AF1D4B7B601D4BB5
:100870001B78DBB203F00103DBB2002B07D01A4B6D
:100880009B6C7A689A4202D9174B9B6C7B60174B22
:1008900000221A70144B9B6C7A689A4207D1134B52
:1008A0001B78DBB243F00103DAB2104B1A70104B25
:1008B0001B687A685A630B4B1B78DBB2002B04D1A0
:1008C0000B4B1B684FF6DC725A63094B1B687A6846
:1008D0005A6300BF0C37BD465DF8047B704700BF0C
:1008E0003F420F00EE0400200C040020EF04002023
:1008F000B400002080B584B000AF78607B686E4A99
:10090000934240F0D5806C4B1B685B6BFB606A4B7D
:100910001B684FF6DC725A63684B1B7803F00103C7
:10092000002B0DD0664B1B7803F00103002B07D082
:10093000644B1B78DBB223F00103DAB2614B1A700F
:10094000614B1B78DBB203F00103002B05D15F4B39
:100950009A6CFB68D31A5D4A93645C4BBB60BB68BE
:10096000DA6CBB685B6B9A4224D2594B1B78002B24
:1009700020D1BB68DB689847BB68DB6C5A1CBB683E
:10098000DA64BB68DA69BB689B691A44BB689A6120
:10099000BB68DA6CBB685B6B9A420BD3BB68012205
:1009A00083F83820474B1B78DBB223F00103DAB21F
:1009B000444B1A70BB68DB6B002B42D1BB681B6CCD
:1009C0005A1CBB681A64BB6893ED117ABB68D3EDFF
:1009D000117A37EEA76ABB681B6C9B00013307EEE8
:1009E000903AF8EE676AC6EE267A77EE677ABB68C9
:1009F000C3ED117ABB6893ED117ABB685B6807EEB3
:100A0000903AF8EE677AB4EEE77AF1EE10FA0CD885
:100A1000BB685B6807EE903AF8EE677ABB68C3ED97
:100A2000117ABB68DA6CBB68DA63BB68DA6CBB68E6
:100A30005B6B5B089A422CD3BB68DA6CBB68DA63E9
:100A400027E0BB68DA6CBB68596BBB68DB6BCB1A01
:100A50009A421ED3BB6893ED117ABB681B6C9B0056
:100A6000013307EE903AF8EE677A67EE276ABB68C3
:100A70001B6C9B00013B07EE903AB8EE677AC6EE1E
:100A8000877ABB68C3ED117ABB681B6C5A1EBB68C2
:100A90001A64BB68D3ED117AFCEEE77A17EE902A60
:100AA000BB689A64FFF7DEFE034B1B6800225A62A4
:100AB00000BF1037BD4680BDB40000205D0400209B
:100AC0005C040020EE040020EF0400200C04002051
:100AD0005E04002080B500AF044B9B6A1846FFF708
:100AE00029FE034B00221A7000BF80BD0C040020B9
:100AF0005E04002080B500AFFFF7B4FE00BF0B4BD3
:100B00001B78DBB2002B03D0094B1B78002BF6D0EF
:100B1000074B1B78012B01D1FFF7DCFF642002F0AB
:100B20001DF9044B01221A7000BF80BDEE040020A5
:100B30005E040020D904002080B582B000AF114BC4
:100B40007B607B6800221A647B684FF000025A6465
:100B50007B6800229A647B680022DA647B6800224A
:100B6000DA637B6800225A637B6800229A61064838
:100B700006F020FC054B01221A7000BF0837BD4665
:100B800080BD00BF0C040020B4840008D9040020FC
:100B900080B500AF2E4B1B7843F00103DAB22C4B2B
:100BA0001A702C4BDB6A1A462A4B5A602A48FFF708
:100BB000C1FDFFF79FFF4FF4FA7002F0CFF8244B0E
:100BC0001B7823F00103DAB2214B1A70214B5B6AC8
:100BD0001846FFF7AFFDFFF78DFF4FF4FA7002F0F4
:100BE000BDF81B4B1B7843F00103DAB2184B1A70A7
:100BF000184B1B6B1A46174B5A601748FFF79AFDA4
:100C0000FFF778FF4FF4FA7002F0A8F8104B1B784A
:100C100023F00103DAB20E4B1A700E4B5B6A1846D2
:100C2000FFF788FDFFF766FF4FF4FA7002F096F8C1
:100C3000084B00229A61074B01221A74054B4FF4AE
:100C4000FA725A60054806F0B5FB00BF80BD00BFD0
:100C50005D0400200C040020001F0AFABC84000878
:100C600080B582B000AF00237B6000237B60102141
:100C70002D4806F0EBF9034623F01F027B6803F0D2
:100C80001F0313431A461021274806F08FF902F07C
:100C900059F803461946244806F0C3FA642002F0C6
:100CA0005DF81021204806F0D1F9034603F01F0338
:100CB0007B6079681D4806F0F7FA00237B6070219D
:100CC000194806F0C3F903461B1503F003037B60C4
:100CD00002F038F803461946134806F0A2FA79687C
:100CE000134806F0E1FA642002F038F801237B6033
:100CF00070210D4806F0AAF9034623F440127B68E0
:100D00001B0503F4401313431A467021064806F0EE
:100D10004DF97968064806F0C7FA064B01221A70A9
:100D200000BF0837BD4680BD84010020C88400088C
:100D3000D8840008D904002080B590B000AF00230B
:100D4000FB630023BB6300237B6300233B6300231F
:100D5000FB620023BB6200237B6200233B62002313
:100D6000FB610023BB6100237B6100233B61002307
:100D7000FB600023BB6000237B601C233B631021CE
:100D8000C94806F063F9034623F4F8523B6B1B0293
:100D900003F4F85313431A461021C34806F006F92A
:100DA00001F0D0FF03461946BF4806F03AFA642026
:100DB00001F0D4FF1021BC4806F048F903461B128D
:100DC00003F01F033B63396BB84806F06DFA10233C
:100DD000FB621021B44806F039F9034623F01F02E4
:100DE000FB6A03F01F0313431A461021AE4806F0B6
:100DF000DDF801F0A7FF03461946AB4806F011FAEB
:100E0000642001F0ABFF1021A74806F01FF903464C
:100E100003F01F03FB62F96AA54806F045FA0023B8
:100E20007B600021A04806F011F903469B1103F0F6
:100E300001037B6079689F4806F036FA01237B60E6
:100E40000021994806F002F9034623F040027B682E
:100E50009B0103F0400313431A460021924806F019
:100E6000A5F801F06FFF034619468F4806F0D9F93F
:100E700000218D4806F0EAF803469B1103F00103B8
:100E80007B6079688B4806F00FFA4FF47A733B6207
:100E90003A6A1421844806F089F801F053FF0346AA
:100EA0001946814806F0BDF9396A834806F0FCF915
:100EB00000237B6000217C4806F0C8F803469B10A5
:100EC00003F001037B6079687C4806F0EDF90023AC
:100ED0007B600021744806F0B9F8034623F0040251
:100EE0007B689B0003F0040313431A4600216E48FD
:100EF00006F05CF801F026FF034619466A4806F042
:100F000090F90021684806F0A1F803469B1003F011
:100F100001037B607968694806F0C6F90A237B60A3
:100F20007A681321604806F041F801F00BFF034690
:100F300019465D4806F075F97968614806F0B4F91C
:100F400000237B600021584806F080F803465B10C0
:100F500003F001037B6079685A4806F0A5F9002385
:100F60007B600021504806F071F8034623F002022E
:100F70007B685B0003F0020313431A4600214A48D2
:100F800006F014F801F0DEFE03461946464806F066
:100F900048F90021444806F059F803465B1003F075
:100FA00001037B607968474806F07EF900237B6087
:100FB00070213D4806F04AF803461B1403F0030372
:100FC0007B607968404806F06FF901237B607021EF
:100FD000354806F03BF8034623F440327B681B0497
:100FE00003F4403313431A4670212F4805F0DEFF07
:100FF00070212D4806F02AF803461B1403F0030362
:101000007B607968304806F04FF900237B6042210D
:10101000254806F01BF80346DB1303F001037B6051
:1010200079682A4806F040F900237B606F211E484A
:1010300006F00CF803461B1403F01F037B6079686D
:10104000234806F031F90021174805F0FFFF034659
:10105000DB1103F00103FB63F96B1E4806F024F972
:101060000123FB630021104805F0F0FF034623F045
:101070008002FB6BDB01DBB213431A4600210A48F6
:1010800005F094FF01F05EFE03461946064806F09F
:10109000C8F80021044805F0D9FF0346DB1103F02E
:1010A0000103FB6318E000BF84010020EC8400080A
:1010B000C8840008F88400080C8500082085000812
:1010C00034850008448500085485000868850008B8
:1010D000788500088C850008F96BCA4806F0E4F8AA
:1010E0006C21C94805F0B2FF034603F00F03BB6350
:1010F000B96BC64806F0D8F80323BB636C21C2481D
:1011000005F0A4FF034623F00F02BB6B03F00F03AF
:1011100013431A466C21BC4805F048FF01F012FE4B
:1011200003461946B84806F07CF86C21B64805F02D
:101130008DFF034603F00F03BB63B96BB44806F0A1
:10114000B3F86C21B04805F081FF03461B1603F08D
:101150000F034FF4807242FA03F37B63796BAD485F
:1011600006F0A2F804237B636C21A74805F06EFF0C
:10117000034623F070627B6B1B0603F0706313431E
:101180001A466C21A04805F011FF01F0DBFD034673
:1011900019469D4806F045F86C219B4805F056FF1E
:1011A00003461B1603F00F034FF4807242FA03F359
:1011B0007B63796B984806F077F80423BB621021B3
:1011C000914805F043FF034623F47022BB6A1B04D9
:1011D00003F4702313431A4610218B4805F0E6FEF2
:1011E00001F0B0FD03461946874806F01AF81021B1
:1011F000854805F02BFF03461B1403F00F03BB6269
:10120000B96A864806F050F84FF4C8737B627A6A70
:1012100040217D4805F0CAFE01F094FD03461946C1
:10122000794805F0FEFF4021774805F00FFF78620E
:10123000796A7B4806F038F864237B617021724834
:1012400005F004FF034623F47F427B691B029BB237
:1012500013431A4670216C4805F0A8FE70216A48B5
:1012600005F0F4FE03461B12DBB27B6101F06AFD60
:1012700003461946644805F0D4FF7969694806F0C9
:1012800013F805237B6042215F4805F0DFFE03462B
:1012900023F00F027B6803F00F0313431A46422129
:1012A000594805F083FE01F04DFD034619465648A6
:1012B00005F0B7FF79685C4805F0F6FF0223FB6193
:1012C0004221514805F0C2FE034623F47062FB69D7
:1012D0001B0203F4706313431A4642214A4805F087
:1012E00065FE01F02FFD03461946474805F099FFBA
:1012F000F9694E4805F0D8FF6C21434805F0A6FE79
:101300000346DB1303F00303BB6101F01BFD03463F
:1013100019463D4805F085FF0123BB616C213A4821
:1013200005F094FE034623F4C032BB69DB0303F4EB
:10133000C03313431A466C21334805F037FE6C2145
:10134000314805F083FE0346DB1303F00303BB6162
:10135000B969374805F0A8FF70212B4805F076FEE3
:1013600003461B12DBB27B6101F0ECFC034619461D
:10137000254805F056FF79692A4805F095FF702148
:10138000214805F063FE03469B1403F001033B6113
:1013900001F0D8FC034619461B4805F042FF3969A5
:1013A000244805F081FF7221174805F04FFEF860D0
:1013B00001F0C8FC03461946134805F032FFF968EE
:1013C0001D4805F071FF71210F4805F03FFEB86020
:1013D00001F0B8FC034619460B4805F022FFB96836
:1013E000164805F061FF00237B600721064805F0E1
:1013F0002DFE034603F01F037B6001F0A3FC0346B0
:1014000019461DE0A485000884010020B885000865
:10141000CC850008E0850008FC85000814860008DB
:101420002886000838860008488600085886000884
:101430006886000874860008888600089886000878
:10144000064805F0EEFE7968054805F02DFF054BCE
:1014500001221A7000BF4037BD4680BD84010020C4
:10146000A8860008D904002080B582B000AF002310
:101470007B60924B40F241121A60904B00229A60BE
:101480008E4B08221A618D4B0022DA608B4B0022B2
:101490001A758B4B00225A70894B00229A70884B28
:1014A0000022DA70864B00221A71854B00225A7195
:1014B000834B00229A71824B0022DA71814B1B68A8
:1014C000A42B77D0A42B00F3AE80A12B5DD0A12B51
:1014D00000F3A980912B00F08880912B00F3A3806A
:1014E000342B3ED0342B00F39E80312B02D0322B94
:1014F0001BD098E0724B31221A70734B9A78704B64
:101500009A70714BDA786E4BDA706F4B1A796C4BBC
:101510001A716D4B5A796A4B5A716B4B9A79684BB9
:101520009A71694BDA79664BDA71654B32221A701F
:10153000654B9A78624B9A70634BDA78604BDA703D
:10154000614B1A795E4B1A715F4B5A795C4B5A7139
:101550005D4B9A795A4B9A715B4BDA79584BDA7139
:1015600068E0574B34221A70574B1A79544B1A7152
:10157000554B5A79524B5A71534B9A79504B9A7139
:10158000514BDA794E4BDA7154E04D4BA1221A706F
:101590004B4B00225A704A4B2C229A70484B012226
:1015A000DA70494B1A79464B1A71474B5A79444BBA
:1015B0005A713FE0424BA4221A70414B00225A70EC
:1015C0003F4B2C229A703E4B0122DA703E4B1A7927
:1015D0003B4B1A713C4B5A79394B5A71384B0022AC
:1015E0009A71374B0022DA7124E0354B91221A7040
:1015F000334B00225A70324B00229A70304B00223B
:10160000DA702F4B00221A712D4B00225A712E4B8B
:101610009A792B4B9A712C4BDA79294BDA712B483A
:1016200005F0C8FE06E02A4805F0C4FE294B012259
:101630001A7000BF234B00221A60274B1B68A12B96
:101640001AD0A12B1FDC9C2B12D09C2B1BDC902BC7
:1016500015D0902B17DC302B02D0332B04D012E0A6
:10166000174B30221A7015E0154B33221A7011E017
:10167000134B9C221A700DE0114BA1221A70104BD3
:1016800090221A7006E0154805F094FE114B0122D5
:101690001A7000BF104B00221A60114801F0C6FEFC
:1016A0000346032B45D10F4B054A04490C4801F072
:1016B000E2FD0A2001F052FB31E000BF8804002067
:1016C000BC040020DC040020D0040020BC860008FC
:1016D000C4860008D9040020E0040020D886000851
:1016E0008C000020CC040020184B194A19491A48D4
:1016F00001F0C1FD0A2001F031FB7B6801337B6002
:101700007B680A2B0BD1154B01221A70124801F08D
:1017100069FD114801F022FD114805F04BFE0F4B09
:101720001B78002BE0D00D4B00221A7000237B6049
:1017300008E00C4805F03EFE084B00221A700A4BE8
:1017400001221A7000BF0837BD4680BDCC040020BE
:10175000BC040020880400208C000020DA04002053
:10176000EC860008F8860008D904002080B582B015
:1017700000AF00237B602C4B40F241121A602A4BD1
:1017800000229A60284B08221A61274B0022DA6057
:10179000254B00221A75254B00225A70244801F06F
:1017A00045FE0346002B3AD0224B204A1E492048D2
:1017B00001F061FD0A2001F0D1FA27E01C4801F098
:1017C00035FE0346002B21D01A4B184A16491848FB
:1017D00001F051FD0A2001F0C1FA7B680A2B0CD1FF
:1017E000154B01221A70124801F0FCFC104801F060
:1017F000B5FC124805F0DEFD08E0114805F0DAFD01
:101800000D4B00221A700F4B01221A700A4B1B78E5
:10181000002BD3D0084B00221A7000237B6000BF3E
:101820000837BD4680BD00BF88040020BC040020EE
:101830008C000020CC040020DA040020EC86000894
:10184000F8860008D904002080B500AF064B0022BE
:101850001A71054B00225A71044BA4221A60FFF73B
:1018600003FE00BF80BD00BFD0040020DC040020C8
:1018700080B500AF064B00221A71054B00225A7149
:10188000044BA4221A60FFF7EFFD00BF80BD00BF2C
:10189000D0040020DC04002080B500AF064B5022AD
:1018A0001A71054B46225A71044BA4221A60FFF7A5
:1018B000DBFD00BF80BD00BFD0040020DC040020A1
:1018C00080B582B000AF00233B8000237B800023E3
:1018D000BB800023FB80734B30221A60FFF7C4FDEE
:1018E000714805F067FD714B9B781946704805F00B
:1018F000DBFC6E4BDB7819466E4805F0D5FC6B4B74
:101900001B7919466C4805F0CFFC684B5B7919468A
:101910006A4805F0C9FC654B9B791946684805F093
:10192000C3FC624BDB791946664805F0BDFC5D4B94
:1019300033221A60FFF798FD634805F03BFD5B4BCF
:101940009B781946614805F0AFFC584BDB78194687
:101950005F4805F0A9FC554B1B7919465D4805F019
:10196000A3FC524B5B7919465B4805F09DFC4F4B3D
:101970009B791946594805F097FC4C4BDB79194681
:10198000574805F091FC474B9C221A60FFF76CFD0D
:10199000544805F00FFD454B9B789BB23B803A883D
:1019A000424BDB789BB21B029BB213449BB23B8041
:1019B0003E4B1B799BB27B807A883C4B5B799BB218
:1019C0001B029BB213449BB27B80384B9B799BB22A
:1019D000BB80BA88354BDB799BB21B029BB21344A8
:1019E0009BB2BB80314B5B7819463F4805F05CFCED
:1019F0003B8819463D4805F057FC7B8819463C4812
:101A000005F052FCBB8819463A4805F04DFC254BC1
:101A100090221A60FFF728FD374805F0CBFC234BD6
:101A20009B789BB23B803A88204BDB789BB21B02B1
:101A30009BB213449BB23B803B889B009BB23B8094
:101A40003B889B089BB23B80184B1B799BB27B80E9
:101A50007A88164B5B799BB21B029BB213449BB2F4
:101A60007B80124B9B799BB2BB80BA880F4BDB7992
:101A70009BB21B029BB213449BB2BB803B881946AE
:101A80001C4805F011FC7B8819461C4805F00CFC2D
:101A9000BB8819461A4805F007FC00BF0837BD4649
:101AA00080BD00BFE00400200C870008C4040020B3
:101AB000148700082C870008448700085C8700080A
:101AC000748700088C870008A4870008AC8700088A
:101AD000C4870008DC870008F08700080488000835
:101AE0001C880008348800083C88000854880008D6
:101AF0006C8800087C880008948800089C8800088E
:101B0000C088000880B584B000AF234B9B789BB29F
:101B10003B803A88204BDB789BB21B029BB213447C
:101B20009BB23B801C4B1B799BB27B807A881A4B03
:101B30005B799BB21B029BB213449BB27B80164B1A
:101B40009B799BB2BB80BA88134BDB799BB21B029B
:101B50009BB213449BB2BB800F4B1B7819460F48B6
:101B600005F0A2FB0C4B5B7819460D4805F09CFB79
:101B70003B8819460B4805F097FB7B8819460A48B5
:101B800005F092FBBB881946084805F08DFB00BFA5
:101B90001037BD4680BD00BFC4040020D8880008AF
:101BA0003C880008548800086C8800087C8800087D
:101BB00080B500AF0C4BC8229A700B4B6422DA70D0
:101BC000094B64221A71084B32225A71064B322299
:101BD0009A71054B1422DA71044B32221A60FFF716
:101BE00043FC00BF80BD00BFD0040020DC04002007
:101BF00080B400AF0E4B00221A700D4B00225A70B9
:101C00000B4B00229A700A4B0022DA70084B00221C
:101C10001A71074B00225A71054B00229A71044B2E
:101C20000022DA7100BFBD465DF8047B704700BF3B
:101C3000D004002090B589B000AFBA4B1B689B68F8
:101C40000021184605F0BEFB01F016F800F004FB79
:101C500000F06CFC00F040FC00F06AFB00F09EFB22
:101C600000F010FCB04805F0A5FBB04BB04A9A60FC
:101C7000AE4BB04ADA60AD4BAF4A1A60AB4B642250
:101C80005A60AA4B00221A74A84B01221A62A74B71
:101C90006422DA62A54BC8221A63A44B4FF4FA728D
:101CA0005A62A24B42F210729A62A44B00221A703E
:101CB000A34B00225A61A24B00229A61A04B012241
:101CC000DA619F4B00221A609D4B00225A609C4BA8
:101CD00000229A609A4B0022DA60994B00221A6126
:101CE000974B01221A62964B0E225A6294499548EC
:101CF00001F054F90346002B01D000F051FD91484A
:101D000001F02CFA0346002B01D000F049FD03211D
:101D10008C4801F0D2FC0346002B01D000F040FDBE
:101D2000894B00221A70894805F044FB012286493C
:101D3000874804F0C3F8814B00221A70854B0022BB
:101D40001A70844B00225A70824B00229A70814B89
:101D50000022DA707F4B00221A717E4B00225A71EA
:101D60007C4B00229A717B4B0022DA714FF4967300
:101D700001227549764803F06DFF00BF6F4B1B7859
:101D8000002BFBD0FFF734FF734B00221A706E4B11
:101D90001B78002BCFD06C4B1B78303B432B00F2D1
:101DA000288201A252F823F0B91E0008C91E0008BB
:101DB000D91E0008E91E0008F51E0008071F0008CC
:101DC000691F00089B1F0008F3210008B91F0008C5
:101DD000F3210008F3210008F3210008F321000893
:101DE000F3210008F3210008F3210008F321000883
:101DF000F3210008F3210008F3210008F321000873
:101E0000F3210008F3210008F3210008F321000862
:101E1000F3210008F3210008F3210008F321000852
:101E2000F3210008F3210008F3210008F321000842
:101E3000F3210008F3210008F3210008F321000832
:101E4000F3210008F3210008F3210008F321000822
:101E5000F3210008F3210008F3210008F321000812
:101E6000F3210008F3210008F32100087521000880
:101E7000F3210008F32100089B210008F32100084A
:101E8000F3210008F3210008BF210008F321000816
:101E9000F3210008E1210008F3210008F3210008E4
:101EA000F3210008B9200008C51F0008D52100084B
:101EB000F321000869210008FFF7C6FCFFF722FEA6
:101EC000214B00221A709EE1FFF7D2FCFFF71AFEA9
:101ED0001D4B00221A7096E1FFF7DEFCFFF712FEA1
:101EE000194B00221A708EE1FFF7EAFC164B002214
:101EF0001A7088E1194B90221A60FFF7B5FA124B5D
:101F000000221A707FE1164B00229A71144B0022B6
:101F1000DA71144B91221A60FFF7A6FA0A4B0022DD
:101F20001A7070E10C000020EC8800080C040020FE
:101F3000AD0600087D06000800007A44D8040020A1
:101F4000600400208C000020E4040020F4880008D5
:101F500040010020BC040020D9040020E00400203F
:101F6000D0040020DC0400204FF48043FB60F968BB
:101F7000A84805F099F9FB68DAB2A74B9A71FB689B
:101F80001B12DAB2A44BDA71A44B91221A60FFF74C
:101F90006BFAA34B00221A7035E19F4B00229A7115
:101FA0009D4B8022DA719D4B91221A60FFF75CFAFB
:101FB0009B4B00221A7026E1FFF7FAFD984B002296
:101FC0001A7020E1974805F06FF9974B00221A70BC
:101FD00000BF954B1B78002BFBD0914B1B78303BFF
:101FE0009BB21A465201D21A920013441A4691002B
:101FF0001A460B4613441B019AB2894B5B78303B5F
:102000009BB219464901C91A89000B44DB009BB2F7
:1020100013449AB2824BDB78303B9BB2194689005D
:102020000B445B0099B27E4B9B78303B9BB21846C9
:1020300080000344184684001846234603449B004E
:102040009BB20B449BB213449AB2754B1B799BB263
:1020500013449BB2303BFB82FB8A1946734805F060
:1020600023F90023FB610AE06D4AFB6913441B78E6
:1020700019466F4805F018F9FB690133FB61FB69EC
:10208000042BF1DD6B4BA4221A706A4B2C229A7040
:10209000684B0122DA70FB8ADAB2664B1A71FB8A4E
:1020A0001B0A9BB2DAB2634B5A71FFF75FFB002346
:1020B000FB825B4B00221A705F4805F0F5F85A4B23
:1020C00000221A7000BF584B1B78002BFBD0544BDA
:1020D0001B78303B9BB21A46920013441A4691007B
:1020E0001A460B4613449B009AB24D4B5B78303B2B
:1020F0009BB2194689000B445B009BB213449AB211
:10210000474B9B789BB213449BB2303BBB82BB8A4C
:1021100019464A4805F0C8F80023BB610AE0404A66
:10212000BB6913441B781946414805F0BDF8BB69EB
:102130000133BB61BB69042BF1DDBB8A404AA2FBC2
:102140000323DB089BB21A464FF4486302FB03F3F8
:102150003B613869FEF738FBFEF7CCFC0023FB82BD
:102160002F4B00221A704EE0FEF7E6FD2C4B0022AA
:102170001A7048E0334805F01DF944F62060FEF778
:1021800023FBFEF7B7FC642000F0E8FD2E4805F0C5
:1021900011F9234B00221A7035E02A4805F00AF99C
:1021A0002A48FEF711FBFEF7A5FC642000F0D6FDDF
:1021B000254805F0FFF81A4B00221A7023E0FEF7BD
:1021C000E7FCFEF797FC642000F0C8FD144B0022EA
:1021D0001A7018E0FEF7B0FC114B00221A7012E0E2
:1021E000FEF73EFD642000F0B9FD0D4B00221A7091
:1021F00009E0174805F0DEF8094B00221A70154B6C
:1022000001221A7000BF00BF124B1B78002BFBD0BD
:1022100091E500BF00890008D0040020DC04002004
:10222000E404002014890008D8040020288900084C
:1022300038890008BC040020488900085C8900082F
:10224000CDCCCCCC708900087C89000878ECFFFFED
:1022500084890008D904002080B594B000AF07F14C
:102260001C0334220021184605F016F807F1080374
:1022700000221A605A609A60DA601A6100237B605B
:10228000294B1B6C284A43F080531364264B1B6C6C
:1022900003F080537B607B6800233B60234B1B680B
:1022A000224A43F440431360204B1B6803F440432D
:1022B0003B603B680223FB610123BB621023FB628E
:1022C00002237B630023BB630823FB63A0233B64DF
:1022D00002237B640223BB640223FB6407F11C031B
:1022E000184602F001FB0346002B01D000F058FA1B
:1022F0000F23BB600223FB6000233B614FF4A0531C
:102300007B614FF48053BB6107F108030521184638
:1023100001F0A0FF0346002B01D000F041FA00BFFE
:102320005037BD4680BD00BF0038024000700040FD
:1023300080B500AF174B184A1A60164B04225A603A
:10234000144B00229A60134B0022DA60114B4FF4B9
:10235000A0221A610F4B4FF400125A610D4B00225C
:102360001A760C4B00225A760A4B00229A76094BB9
:102370000022DA76074B00221A77064B00225A77A2
:10238000044800F00FFD0346002B01D000F008FACE
:1023900000BF80BD8C0000200064004080B58EB07E
:1023A00000AF07F1280300221A605A609A60DA60D1
:1023B00007F1200300221A605A603B1D00221A60B8
:1023C0005A609A60DA601A615A619A612B4B2C4A02
:1023D0001A602A4B9F225A60284B00229A60274B92
:1023E0004FF6FF72DA60254B00221A61234B002260
:1023F0009A61224802F016FD0346002B01D000F03E
:10240000CFF94FF48053BB6207F1280319461B48EC
:1024100002F014FF0346002B01D000F0C1F9174869
:1024200002F04FFD0346002B01D000F0B9F9002364
:102430003B6200237B6207F1200319460F4803F03B
:10244000D7FA0346002B01D000F0AAF900237B60E5
:102450000023BB600023FB6000237B613B1D002247
:102460001946064802F08EFE0346002B01D000F00C
:1024700097F900BF3837BD4680BD00BFB4000020CB
:102480000004004080B500AF104B114A1A600F4B9A
:10249000104A5A600D4B00229A600C4B0022DA6001
:1024A0000A4B00221A61094B0C225A61074B002289
:1024B0009A61064B0022DA61044803F076FB03467A
:1024C000002B01D000F06CF900BF80BDFC000020A3
:1024D0000010014020A1070080B500AF114B124A47
:1024E0001A60104B4FF4E1325A600E4B00229A6092
:1024F0000C4B0022DA600B4B00221A61094B0C22B4
:102500005A61084B00229A61064B0022DA610548A5
:1025100003F0FEFA0346002B01D000F041F900BFA2
:1025200080BD00BF400100200044004080B58AB05B
:1025300000AF07F1140300221A605A609A60DA6053
:102540001A6100233B61544B1B6B534A43F0040355
:102550001363514B1B6B03F004033B613B69002386
:10256000FB604D4B1B6B4C4A43F0800313634A4B9B
:102570001B6B03F08003FB60FB680023BB60464BD2
:102580001B6B454A43F001031363434B1B6B03F082
:102590000103BB60BB6800237B603F4B1B6B3E4A63
:1025A00043F0020313633C4B1B6B03F002037B609D
:1025B0007B6800222021394801F01AFE00224FF4E6
:1025C0004471374801F014FE4FF400537B614FF41F
:1025D0000413BB610023FB6107F114031946314862
:1025E00001F05AFC20237B610123BB610023FB61C6
:1025F00000233B6207F114031946284801F04CFC04
:1026000080237B614FF44413BB610023FB6107F11E
:1026100014031946214801F03FFC10237B6101237C
:10262000BB610023FB6100233B6207F114031946E1
:102630001B4801F031FC40237B614FF44413BB6124
:102640000023FB6107F114031946154801F024FC2F
:102650004FF440737B610123BB610023FB610323C3
:102660003B6207F1140319460D4801F015FC0022E6
:102670000121172001F047FB172001F060FB002229
:102680000121282001F03FFB282001F058FB00BF6A
:102690002837BD4680BD00BF003802400000024020
:1026A000000402400008024080B584B000AFF8602A
:1026B000B9607A607B689AB20A23B968034803F06C
:1026C000C9FA7B6818461037BD4680BD400100201E
:1026D00080B582B000AF7860114B01221A701148AA
:1026E00004F0E2FD104B1B78702B05D105220E493A
:1026F0000E4803F0E3FB0EE00B4B1B786F2B05D16C
:1027000003220949094803F0D9FB04E001220649E4
:10271000064803F0D3FB00BF0837BD4680BD00BFAD
:10272000D804002090890008E40400204001002023
:1027300080B582B000AF7860044804F0B5FD044B6A
:1027400001221A7000BF0837BD4680BDA08900086D
:10275000DA04002080B582B000AF78600A4804F047
:10276000A3FD0A4B0A4A00210A4800F094FE6423A4
:1027700008220649084803F06DFA084B01221A7036
:1027800000BF0837BD4680BDA8890008C4040020EA
:10279000A00400208C00002040010020D90400206B
:1027A00080B400AF72B600BFFEE7000080B483B013
:1027B00000AF00237B60104B5B6C0F4A43F48043F7
:1027C00053640D4B5B6C03F480437B607B68002398
:1027D0003B60094B1B6C084A43F080531364064B63
:1027E0001B6C03F080533B603B6800BF0C37BD4659
:1027F0005DF8047B704700BF0038024080B58AB0A6
:1028000000AF786007F1140300221A605A609A60E2
:10281000DA601A617B681B682A4A93424DD1002313
:102820003B61294B1B6C284A43F000731364264B11
:102830001B6C03F000733B613B690023FB60224B80
:102840001B6B214A43F0010313631F4B1B6B03F007
:102850000103FB60FB684FF400637B610223BB61F3
:102860000023FB6103233B6209237B6207F114030E
:102870001946164801F010FB4FF480537B61022388
:10288000BB610123FB6103233B6209237B6207F1E8
:10289000140319460D4801F0FFFA0022002113200D
:1028A00001F031FA132001F04AFA0022002114202D
:1028B00001F029FA142001F042FA00BF2837BD4682
:1028C00080BD00BF006400400038024000000240AC
:1028D00080B584B000AF78607B681B680E4A934275
:1028E00015D10023FB600D4B1B6C0C4A43F0020317
:1028F00013640A4B1B6C03F00203FB60FB680022AD
:1029000002211D2001F0FFF91D2001F018FA00BF7F
:102910001037BD4680BD00BF0004004000380240B3
:1029200080B58CB000AF786007F11C0300221A60FC
:102930005A609A60DA601A617B681B68364A934273
:102940002DD10023BB61354B5B6C344A43F010033F
:102950005364324B5B6C03F01003BB61BB69002313
:102960007B612E4B1B6B2D4A43F0010313632B4BF2
:102970001B6B03F001037B617B694FF40073FB6108
:1029800012233B6200237B620223BB620723FB62AC
:1029900007F11C031946224801F07EFA38E07B68F3
:1029A0001B68204A934233D100233B611B4B1B6CB5
:1029B0001A4A43F400331364184B1B6C03F40033BE
:1029C0003B613B690023FB60144B1B6B134A43F0D4
:1029D00001031363114B1B6B03F00103FB60FB68E6
:1029E0000C23FB6102233B6200237B620323BB6257
:1029F0000723FB6207F11C031946094801F04CFA52
:102A000000220021262001F07EF9262001F097F90E
:102A100000BF3037BD4680BD001001400038024085
:102A2000000002400044004080B400AFFEE780B4E4
:102A300000AFFEE780B400AFFEE780B400AFFEE772
:102A400080B400AFFEE780B400AF00BFBD465DF8C4
:102A5000047B704780B400AF00BFBD465DF8047BC7
:102A6000704780B400AF00BFBD465DF8047B70477F
:102A700080B500AF00F052F900BF80BD80B500AF57
:102A8000024800F040FE00BF80BD00BF8C00002067
:102A900080B500AF024800F036FE00BF80BD00BF29
:102AA0008C00002080B500AF402001F0BBFB8020EF
:102AB00001F0B8FB00BF80BD80B500AF024802F056
:102AC00059FA00BF80BD00BFB400002080B500AF40
:102AD000024803F023FA00BF80BD00BF4001002080
:102AE00080B500AF4FF4005001F09CFB00BF80BDEB
:102AF00080B586B000AFF860B9607A6000237B6172
:102B00000AE0AFF300800146BB685A1CBA60CAB243
:102B10001A707B6901337B617A697B689A42F0DBCA
:102B20007B6818461837BD4680BD80B483B000AFBF
:102B300078604FF0FF3318460C37BD465DF8047BD4
:102B4000704780B483B000AF786039603B684FF461
:102B500000525A60002318460C37BD465DF8047BCE
:102B6000704780B483B000AF7860012318460C37FB
:102B7000BD465DF8047B704780B485B000AFF86057
:102B8000B9607A60002318461437BD465DF8047BAF
:102B90007047000080B586B000AF7860144A154BCE
:102BA000D31A7B617B693B61134B1B68002B02D1FD
:102BB000114B124A1A60104B1A687B6813443A6929
:102BC0009A4207D204F03EFB03460C221A604FF0F3
:102BD000FF3309E0084B1B68FB60074B1A687B68F2
:102BE0001344054A1360FB6818461837BD4680BD7C
:102BF0000000022000040000F00400201007002064
:102C000080B400AF064BD3F88830054A43F4700314
:102C1000C2F8883000BFBD465DF8047B704700BF36
:102C200000ED00E0DFF834D00D480E490E4A0023D5
:102C300002E0D458C4500433C4188C42F9D30B4A70
:102C40000B4C002301E013600432A242FBD3FFF7D8
:102C5000D7FF04F0FDFAFEF7EDFF704700000220F9
:102C60000000002070000020708A00087000002022
:102C70000C070020FEE7000080B500AF0E4B1B687C
:102C80000D4A43F4007313600B4B1B680A4A43F46C
:102C900080631360084B1B68074A43F4807313601A
:102CA000032001F025F8002000F008F8FFF77EFD72
:102CB0000023184680BD00BF003C024080B582B0B2
:102CC00000AF7860124B1A68124B1B7819464FF40C
:102CD0007A73B3FBF1F3B2FBF3F3184601F03DF85E
:102CE0000346002B01D001230EE07B680F2B0AD88E
:102CF000002279684FF0FF3001F005F8064A7B6842
:102D00001360002300E0012318460837BD4680BD4C
:102D100000000020080000200400002080B400AF64
:102D2000064B1B781A46064B1B681344044A136073
:102D300000BFBD465DF8047B704700BF080000205F
:102D4000F404002080B400AF034B1B681846BD4656
:102D50005DF8047B704700BFF404002080B584B0A8
:102D600000AF7860FFF7EEFFB8607B68FB60FB6840
:102D7000B3F1FF3F05D00A4B1B781A46FB6813449A
:102D8000FB6000BFFFF7DEFF0246BB68D31AFA689C
:102D90009A42F7D800BF00BF1037BD4680BD00BFC4
:102DA0000800002080B584B000AF78607B68002BFD
:102DB00001D10123EDE07B6893F82030DBB2002BDA
:102DC00002D17868FFF71AFD7B681B681A687B6878
:102DD0001B6842F001021A60FFF7B4FFF86012E0CE
:102DE000FFF7B0FF0246FB68D31A0A2B0BD97B68AA
:102DF0005B6A43F400327B685A627B68052283F881
:102E000020200123C5E07B681B685B6803F0010399
:102E1000002BE5D07B681B681A687B681B6822F072
:102E200002021A60FFF78EFFF86012E0FFF78AFFD8
:102E30000246FB68D31A0A2B0BD97B685B6A43F402
:102E400000327B685A627B68052283F820200123C8
:102E50009FE07B681B685B6803F00203002BE5D1F1
:102E60007B681B7E012B08D17B681B681A687B6816
:102E70001B6842F080021A6007E07B681B681A68D2
:102E80007B681B6822F080021A607B685B7E012BE6
:102E900008D17B681B681A687B681B6842F0400297
:102EA0001A6007E07B681B681A687B681B6822F061
:102EB00040021A607B689B7E012B08D17B681B68EF
:102EC0001A687B681B6842F020021A6007E07B6882
:102ED0001B681A687B681B6822F020021A607B68F6
:102EE000DB7E012B08D17B681B681A687B681B6836
:102EF00022F010021A6007E07B681B681A687B6882
:102F00001B6842F010021A607B681B7F012B08D1FE
:102F10007B681B681A687B681B6842F008021A60AD
:102F200007E07B681B681A687B681B6822F0080250
:102F30001A607B685B7F012B08D17B681B681A686D
:102F40007B681B6842F004021A6007E07B681B681C
:102F50001A687B681B6822F004021A607B689A6812
:102F60007B68DB681A437B681B691A437B685B6973
:102F700042EA03017B685B685A1E7B681B680A4350
:102F8000DA617B6800225A627B68012283F8202084
:102F9000002318461037BD4680BD000080B487B0BE
:102FA00000AF786039607B681B687B617B6893F851
:102FB0002030FB74FB7C012B03D0FB7C022B40F008
:102FC000BE80654B7B617B69D3F8003243F0010220
:102FD0007B69C3F800227B69D3F8003223F47C526A
:102FE0007B69C3F800227B69D3F800223B685B6AE7
:102FF0001B021A437B69C3F800223B685B6903F03C
:103000001F03012202FA03F3FB607B69D3F81C2241
:10301000FB68DB431A407B69C3F81C223B68DB6911
:10302000002B23D17B69D3F80C22FB68DB431A40C9
:103030007B69C3F80C223B68DB6819043B685B685A
:103040009BB23A68526919437B69483243F832109F
:103050003B689B6819043B681B689AB23B685B69D4
:103060000A4379694833DB000B445A603B68DB69EB
:10307000012B22D17B69D3F80C22FB681A437B69B0
:10308000C3F80C223B681B6819043B685B689BB261
:103090003A68526919437B69483243F832103B68F9
:1030A0009B6819043B68DB689AB23B685B690A431A
:1030B00079694833DB000B445A603B689B69002BFD
:1030C00009D17B69D3F80422FB68DB431A407B6992
:1030D000C3F8042207E07B69D3F80422FB681A4393
:1030E0007B69C3F804223B681B69002B09D17B690B
:1030F000D3F81422FB68DB431A407B69C3F814221F
:1031000007E07B69D3F81422FB681A437B69C3F894
:1031100014223B681B6A012B07D17B69D3F81C2260
:10312000FB681A437B69C3F81C227B69D3F8003221
:1031300023F001027B69C3F80022002306E07B68CC
:103140005B6A43F480227B685A62012318461C376D
:10315000BD465DF8047B70470064004080B584B0D4
:1031600000AF78607B6893F82030DBB2012B2ED162
:103170007B68022283F820207B681B681A687B68C2
:103180001B6822F001021A60FFF7DCFDF86012E014
:10319000FFF7D8FD0246FB68D31A0A2B0BD97B68D0
:1031A0005B6A43F400327B685A627B68052283F8CD
:1031B0002020012312E07B681B685B6803F0010399
:1031C000002BE5D17B6800225A62002306E07B6871
:1031D0005B6A43F400227B685A6201231846103769
:1031E000BD4680BD80B584B000AF78607B6893F841
:1031F0002030DBB2022B33D17B681B681A687B68F6
:103200001B6842F001021A60FFF79CFDF86012E0B3
:10321000FFF798FD0246FB68D31A0A2B0BD97B688F
:103220005B6A43F400327B685A627B68052283F84C
:10323000202001231BE07B681B685B6803F001030F
:10324000002BE5D07B681B681A687B681B6822F03E
:1032500002021A607B68012283F82020002306E026
:103260007B685B6A43F480127B685A6201231846CC
:103270001037BD4680BD80B489B000AFF860B9603A
:103280007A603B60FB6893F82030FB77FB681B6833
:103290009B68BB61FB7F012B03D0FB7F022B40F0BF
:1032A000B880BB6903F08063002B0AD1BB6903F0CF
:1032B0000063002B05D1BB6903F08053002B00F0A5
:1032C000A080BB691B0E03F003037B617B69022BAB
:1032D00007D9FB685B6A43F40002FB685A6201236A
:1032E0009EE001227B699A403B681A60BB689B683C
:1032F000002B0DD1BB681B685A05BB68DB68F968F9
:1033000009681A437B6918331B010B441A600FE0EC
:10331000BB685B68DA00BB689B681A43BB68DB6804
:10332000F96809681A437B6918331B010B441A605A
:10333000FB681968BB681A697B6918331B010B4469
:1033400004331A60BB681B7D012B11D1FB681A681E
:103350007B6918331B01134404331B68FA68116836
:1033600043F480727B6918331B010B4404331A60E9
:103370007B6807331B781A067B6806331B781B04AF
:103380001A437B6805331B781B0213437A680432A7
:1033900012781046FA68116843EA00027B691B0143
:1033A0000B4403F5C6731A607B6803331B781A0657
:1033B0007B6802331B781B041A437B6801331B783C
:1033C0001B0213437A6812781046FA68116843EAC0
:1033D00000027B691B010B4403F5C4731A60FB6890
:1033E0001A687B6918331B0113441B68FA6811685B
:1033F00043F001027B6918331B010B441A60002360
:103400000EE0FB685B6A43F40012FB685A6201231A
:1034100006E0FB685B6A43F48022FB685A62012382
:1034200018462437BD465DF8047B704780B485B0EC
:1034300000AF78600023FB607B6893F82030FB725C
:10344000FB7A012B02D0FB7A022B1DD17B681B6813
:103450009B6803F08063002B02D0FB680133FB60A4
:103460007B681B689B6803F00063002B02D0FB683D
:103470000133FB607B681B689B6803F08053002B63
:1034800002D0FB680133FB60FB6818461437BD4669
:103490005DF8047B704780B487B000AFF860B96016
:1034A0007A603B60FB6893F82030FB75FB7D012B55
:1034B00003D0FB7D022B40F0F380BB68002B0ED1C4
:1034C000FB681B68DB6803F00303002B16D1FB6865
:1034D0005B6A43F40012FB685A620123E7E0FB6871
:1034E0001B681B6903F00303002B07D1FB685B6AB1
:1034F00043F40012FB685A620123D8E0FB681A68A3
:10350000BB681B331B0113441B6803F004027B6878
:103510009A607B689B68002B0CD1FB681A68BB68BB
:103520001B331B0113441B685B0DC3F30A027B684A
:103530001A600BE0FB681A68BB681B331B0113445D
:103540001B68DB0823F060427B685A60FB681A68DE
:10355000BB681B331B0113441B6803F002027B682A
:10356000DA60FB681A68BB681B331B011344043321
:103570001B6803F00F027B681A61FB681A68BB685E
:103580001B331B01134404331B681B0ADAB27B682C
:103590009A61FB681A68BB681B331B011344043330
:1035A0001B681B0C9AB27B685A61FB681A68BB687F
:1035B0001B01134403F5DC731B68DAB23B681A7015
:1035C000FB681A68BB681B01134403F5DC731B68B6
:1035D0001A0A3B680133D2B21A70FB681A68BB68DA
:1035E0001B01134403F5DC731B681A0C3B680233A0
:1035F000D2B21A70FB681A68BB681B01134403F54A
:10360000DC731B681A0E3B680333D2B21A70FB6876
:103610001A68BB681B01134403F5DE731A683B6824
:103620000433D2B21A70FB681A68BB681B011344DA
:1036300003F5DE731B681A0A3B680533D2B21A70B1
:10364000FB681A68BB681B01134403F5DE731B6833
:103650001A0C3B680633D2B21A70FB681A68BB6852
:103660001B01134403F5DE731B681A0E3B68073316
:10367000D2B21A70BB68002B08D1FB681B68DA68ED
:10368000FB681B6842F02002DA6007E0FB681B68F9
:103690001A69FB681B6842F020021A61002306E0E9
:1036A000FB685B6A43F48022FB685A620123184678
:1036B0001C37BD465DF8047B704780B485B000AF11
:1036C000786039607B6893F82030FB73FB7B012BBB
:1036D00002D0FB7B022B09D17B681B6859697B6890
:1036E0001B683A680A435A61002306E07B685B6AFC
:1036F00043F480227B685A62012318461437BD4682
:103700005DF8047B704780B58AB000AF7860002315
:103710007B627B681B685B693B627B681B685B68DC
:10372000FB617B681B689B68BB617B681B68DB680F
:103730007B617B681B681B693B617B681B689B69BD
:10374000FB603B6A03F00103002B7CD0BB6903F0F4
:103750000103002B23D07B681B6801229A60BB69A0
:1037600003F00203002B03D07868FEF7E1FF16E0B8
:10377000BB6903F00403002B04D07B6A43F40063AD
:103780007B620CE0BB6903F00803002B04D07B6A6A
:1037900043F480537B6202E0786800F07FF9BB69F4
:1037A00003F48073002B24D07B681B684FF4807275
:1037B0009A60BB6903F40073002B03D0786800F0B3
:1037C00059F916E0BB6903F48063002B04D07B6ACF
:1037D00043F400537B620CE0BB6903F40063002BED
:1037E00004D07B6A43F480437B6202E0786800F097
:1037F0005FF9BB6903F48033002B24D07B681B681E
:103800004FF480329A60BB6903F40033002B03D07D
:10381000786800F039F916E0BB6903F48023002BC7
:1038200004D07B6A43F400437B620CE0BB6903F481
:103830000023002B04D07B6A43F480337B6202E0D8
:10384000786800F03FF93B6A03F00803002B0CD0C6
:103850007B6903F01003002B07D07B6A43F40073ED
:103860007B627B681B681022DA603B6A03F004030A
:10387000002B0BD07B6903F00803002B06D07B687C
:103880001B680822DA60786800F026F93B6A03F0CA
:103890000203002B09D07B681B68DB6803F003037D
:1038A000002B02D07868FEF755FF3B6A03F0400317
:1038B000002B0CD03B6903F01003002B07D07B6A70
:1038C00043F480637B627B681B6810221A613B6A49
:1038D00003F02003002B0BD03B6903F00803002BFF
:1038E00006D07B681B6808221A61786800F008F926
:1038F0003B6A03F01003002B09D07B681B681B692F
:1039000003F00303002B02D0786800F0EFF83B6A65
:1039100003F40033002B0BD0FB6903F01003002BE2
:1039200006D07B681B6810225A60786800F0F2F8B5
:103930003B6A03F48033002B0BD0FB6903F00803D0
:10394000002B06D07B681B6808225A60786800F05C
:10395000EBF83B6A03F40043002B7BD0FB6903F0D8
:103960000403002B72D03B6A03F48073002B08D051
:10397000FB6803F00103002B03D07B6A43F00103D3
:103980007B623B6A03F40073002B08D0FB6803F0F2
:103990000203002B03D07B6A43F002037B623B6A85
:1039A00003F48063002B08D0FB6803F00403002BB2
:1039B00003D07B6A43F004037B623B6A03F4006339
:1039C000002B43D0FB6803F07003002B3ED0FB6854
:1039D00003F07003602B2BD0602B2ED8502B22D0FD
:1039E000502B2AD8402B19D0402B26D8302B10D062
:1039F000302B22D8102B02D0202B05D01DE07B6A63
:103A000043F008037B6219E07B6A43F010037B629A
:103A100014E07B6A43F020037B620FE07B6A43F093
:103A200040037B620AE07B6A43F080037B6205E02F
:103A30007B6A43F480737B6200E000BF7B681B6895
:103A40009A697B681B6822F070029A617B681B6828
:103A500004225A607B6A002B08D07B685A6A7B6A12
:103A60001A437B685A62786800F068F800BF28370C
:103A7000BD4680BD80B483B000AF786000BF0C3716
:103A8000BD465DF8047B704780B483B000AF7860BA
:103A900000BF0C37BD465DF8047B704780B483B02F
:103AA00000AF786000BF0C37BD465DF8047B7047FF
:103AB00080B483B000AF786000BF0C37BD465DF8BE
:103AC000047B704780B483B000AF786000BF0C37D0
:103AD000BD465DF8047B704780B483B000AF78606A
:103AE00000BF0C37BD465DF8047B704780B483B0DF
:103AF00000AF786000BF0C37BD465DF8047B7047AF
:103B000080B483B000AF786000BF0C37BD465DF86D
:103B1000047B704780B483B000AF786000BF0C377F
:103B2000BD465DF8047B704780B483B000AF786019
:103B300000BF0C37BD465DF8047B704780B483B08E
:103B400000AF786000BF0C37BD465DF8047B70475E
:103B500080B485B000AF78607B6803F00703FB603A
:103B60000C4BDB68BB60BA684FF6FF031340BB60C9
:103B7000FB681A02BB68134343F0BF6343F400338E
:103B8000BB60044ABB68D36000BF1437BD465DF814
:103B9000047B704700ED00E080B400AF044BDB68AD
:103BA0001B0A03F007031846BD465DF8047B704707
:103BB00000ED00E080B483B000AF0346FB7197F9DD
:103BC0000730002B0BDBFB7903F01F02074997F945
:103BD00007305B09012000FA02F241F8232000BF00
:103BE0000C37BD465DF8047B704700BF00E100E084
:103BF00080B483B000AF03463960FB7197F907309A
:103C0000002B0ADB3B68DAB20C4997F90730120146
:103C1000D2B20B4483F800230AE03B68DAB20849C9
:103C2000FB7903F00F03043B1201D2B20B441A7666
:103C300000BF0C37BD465DF8047B704700E100E033
:103C400000ED00E080B489B000AFF860B9607A6040
:103C5000FB6803F00703FB61FB69C3F10703042B57
:103C600028BF0423BB61FB690433062B02D9FB691F
:103C7000033B00E000237B614FF0FF32BB6902FA97
:103C800003F3DA43BB681A407B699A404FF0FF3177
:103C90007B6901FA03F3D9437B680B401343184651
:103CA0002437BD465DF8047B7047000080B582B0C4
:103CB00000AF78607B68013BB3F1807F01D30123C3
:103CC0000FE00A4A7B68013B53600F214FF0FF3041
:103CD000FFF78EFF054B00229A60044B07221A6003
:103CE000002318460837BD4680BD00BF10E000E045
:103CF00080B582B000AF78607868FFF729FF00BF19
:103D00000837BD4680BD80B586B000AF0346B960B8
:103D10007A60FB7300237B61FFF73EFF78617A686E
:103D2000B9687869FFF78EFF024697F90F301146A0
:103D30001846FFF75DFF00BF1837BD4680BD80B550
:103D400082B000AF0346FB7197F907301846FFF7C2
:103D500031FF00BF0837BD4680BD80B582B000AFDF
:103D600078607868FFF7A2FF034618460837BD461B
:103D700080BD80B584B000AF78607B689B6DFB60D0
:103D8000FEF7E0FFB8607B6893F83530DBB2022BBA
:103D900008D07B6880225A657B68002283F8342033
:103DA000012352E07B681B681A687B681B6822F05D
:103DB00016021A607B681B685A697B681B6822F0D0
:103DC00080025A617B681B6C002B03D17B689B6C63
:103DD000002B07D07B681B681A687B681B6822F081
:103DE00008021A607B681B681A687B681B6822F0EF
:103DF00001021A6013E0FEF7A5FF0246BB68D31A62
:103E0000052B0CD97B6820225A657B68032283F836
:103E100035207B68002283F83420032315E07B687B
:103E20001B681B6803F00103002BE4D17B68DB6D8A
:103E30003F229A40FB689A607B68012283F8352014
:103E40007B68002283F83420002318461037BD46D3
:103E500080BD80B483B000AF78607B6893F8353064
:103E6000DBB2022B04D07B6880225A6501230CE070
:103E70007B68052283F835207B681B681A687B689D
:103E80001B6822F001021A60002318460C37BD4659
:103E90005DF8047B7047000080B489B000AF7860A3
:103EA000396000237B6100233B610023BB61002359
:103EB000FB6165E10122FB6902FA03F37B613B6868
:103EC0001B687A6913403B613A697B699A4240F00A
:103ED00054813B685B6803F00303012B05D03B680A
:103EE0005B6803F00303022B30D17B689B68BB61E6
:103EF000FB695B00032202FA03F3DB43BA69134058
:103F0000BB613B68DA68FB695B0002FA03F3BA69DC
:103F10001343BB617B68BA699A607B685B68BB616D
:103F20000122FB6902FA03F3DB43BA691340BB6168
:103F30003B685B681B0903F00102FB6902FA03F3AB
:103F4000BA691343BB617B68BA695A603B685B68B6
:103F500003F00303032B17D07B68DB68BB61FB69AD
:103F60005B00032202FA03F3DB43BA691340BB612F
:103F70003B689A68FB695B0002FA03F3BA69134372
:103F8000BB617B68BA69DA603B685B6803F0030376
:103F9000022B23D1FB69DA087B68083253F8223000
:103FA000BB61FB6903F007039B000F2202FA03F3D6
:103FB000DB43BA691340BB613B681A69FB6903F0D4
:103FC00007039B0002FA03F3BA691343BB61FB6961
:103FD000DA087B680832B96943F822107B681B68ED
:103FE000BB61FB695B00032202FA03F3DB43BA699E
:103FF0001340BB613B685B6803F00302FB695B0035
:1040000002FA03F3BA691343BB617B68BA691A60A9
:104010003B685B6803F44033002B00F0AE80002364
:10402000FB605D4B5B6C5C4A43F4804353645A4BCA
:104030005B6C03F48043FB60FB68584AFB699B0898
:10404000023352F82330BB61FB6903F003039B008A
:104050000F2202FA03F3DB43BA691340BB617B68AA
:104060004F4A934225D07B684E4A93421FD07B68CB
:104070004D4A934219D07B684C4A934213D07B68D7
:104080004B4A93420DD07B684A4A934207D07B68E3
:10409000494A934201D106230CE007230AE0052395
:1040A00008E0042306E0032304E0022302E00123E6
:1040B00000E00023FA6902F0030292009340BA691B
:1040C0001343BB613549FB699B080233BA6941F868
:1040D00023203A4B9B68BB613B69DB43BA691340C1
:1040E000BB613B685B6803F48013002B03D0BA69A3
:1040F0003B691343BB61314ABB6993602F4BDB685B
:10410000BB613B69DB43BA691340BB613B685B68D9
:1041100003F40013002B03D0BA693B691343BB615E
:10412000264ABB69D360254B5B68BB613B69DB43B7
:10413000BA691340BB613B685B6803F40033002B32
:1041400003D0BA693B691343BB611C4ABB69536026
:104150001A4B1B68BB613B69DB43BA691340BB6107
:104160003B685B6803F48033002B03D0BA693B697A
:104170001343BB61114ABB691360FB690133FB61E7
:10418000FB690F2B7FF696AE00BF00BF2437BD46FC
:104190005DF8047B704700BF0038024000380140E2
:1041A000000002400004024000080240000C0240EF
:1041B000001002400014024000180240003C014080
:1041C00080B485B000AF78600B467B807B681A694D
:1041D0007B881340002B02D00123FB7301E00023F6
:1041E000FB73FB7B18461437BD465DF8047B7047B4
:1041F00080B483B000AF78600B467B8013467B7041
:104200007B78002B03D07A887B689A6103E07B88F7
:104210001A047B689A6100BF0C37BD465DF8047BC9
:104220007047000080B582B000AF0346FB80084BAA
:104230005A69FB881340002B06D0054AFB8853615E
:10424000FB881846FCF7EEF900BF0837BD4680BD75
:10425000003C014080B584B000AF786039607B6875
:10426000002B01D10123CCE0684B1B6803F00F0346
:104270003A689A420CD9654B3A68D2B21A70634BCD
:104280001B6803F00F033A689A4201D00123B8E09B
:104290007B681B6803F00203002B20D07B681B683F
:1042A00003F00403002B05D0594B9B68584A43F494
:1042B000E05393607B681B6803F00803002B05D074
:1042C000534B9B68524A43F460439360504B9B6846
:1042D00023F0F0027B689B684D4913438B607B6839
:1042E0001B6803F00103002B44D07B685B68012B43
:1042F00007D1474B1B6803F40033002B19D101236E
:104300007FE07B685B68022B03D07B685B68032BD4
:1043100007D13F4B1B6803F00073002B09D1012329
:104320006FE03B4B1B6803F00203002B01D101231C
:1043300067E0374B9B6823F003027B685B68344976
:1043400013438B60FEF7FEFCF8600AE0FEF7FAFC10
:104350000246FB68D31A41F28832934201D9032303
:104360004FE02B4B9B6803F00C027B685B689B0063
:104370009A42EBD1254B1B6803F00F033A689A422F
:104380000CD2224B3A68D2B21A70204B1B6803F051
:104390000F033A689A4201D0012332E07B681B6820
:1043A00003F00403002B08D0194B9B6823F4E05260
:1043B0007B68DB68164913438B607B681B6803F0DE
:1043C0000803002B09D0124B9B6823F460427B68E2
:1043D0001B69DB000E4913438B6000F055F8024661
:1043E0000B4B9B681B0903F00F030A49CB5C22FAB5
:1043F00003F3094A1360094B1B681846FEF75EFC7D
:10440000002318461037BD4680BD00BF003C024067
:1044100000380240B089000800000020040000209D
:1044200080B400AF034B1B681846BD465DF8047BA3
:10443000704700BF0000002080B500AFFFF7F0FF1D
:104440000246054B9B689B0A03F007030349CB5CBC
:1044500022FA03F3184680BD00380240C0890008E4
:1044600080B500AFFFF7DCFF0246054B9B685B0B96
:1044700003F007030349CB5C22FA03F3184680BD1F
:1044800000380240C08900082DE9B04FAEB000AF3F
:104490000023C7F8AC300023C7F8B4300023C7F8B6
:1044A000A8300023C7F8A4300023C7F8B030CB4BA6
:1044B0009B6803F00C030C2B00F2068201A252F859
:1044C00023F000BFF9440008C9480008C9480008A3
:1044D000C948000801450008C9480008C948000843
:1044E000C948000809450008C9480008C94800082B
:1044F000C9480008F9460008B94BC7F8B030E7E1F1
:10450000B84BC7F8B030E3E1B44B5B6803F03F034E
:10451000C7F8AC30B14B5B6803F48003002B71D05B
:10452000AE4B5B689B090022C7F89830C7F89C2007
:10453000D7F89830C3F30803C7F890300023C7F8C2
:104540009430D7E9244522462B464FF000004FF027
:104550000001590141EAD261500102460B46214651
:10456000511A3964294663EB01037B644FF0000262
:104570004FF00003D7E9108949468B01414643EAD1
:10458000916341468A014146511AB963494663EB3A
:104590000103FB634FF000024FF00003D7E90E89DF
:1045A0004946CB00414643EA51734146CA00104692
:1045B0001946034622469B183B632B460A4642EBAC
:1045C00003037B634FF000024FF00003D7E90C4573
:1045D00029464B02214643EAD15321464A0210465E
:1045E0001946D7F8AC300022C7F88830C7F88C20BD
:1045F000D7E92223FBF75CFE02460B461346C7F8B9
:10460000B43067E0754B5B689B090022C7F88030C7
:10461000C7F88420D7F88030C3F30803BB670023B2
:10462000FB67D7E91E4522462B464FF000004FF0AE
:104630000001590141EAD261500102460B46214670
:10464000511AB962294663EB0103FB624FF0000285
:104650004FF00003D7E90A8949468B01414643EAF6
:10466000916341468A014146B2EB010A494663EB38
:10467000010B4FF000024FF000034FEACB0343EA77
:104680005A734FEACA0292469B4623461AEB03032B
:104690003B622B464BEB03037B624FF000024FF073
:1046A0000003D7E9084529468B02214643EA915386
:1046B00021468A0210461946D7F8AC3000223B67E3
:1046C0007A67D7E91C23FBF7F3FD02460B46134636
:1046D000C7F8B430414B5B681B0C03F00303013394
:1046E0005B00C7F8A830D7F8B420D7F8A830B2FBE1
:1046F000F3F3C7F8B030EBE0384B5B6803F03F03EF
:10470000C7F8AC30354B5B6803F48003002B6BD0EB
:10471000324B5B689B090022BB66FA66BB6EC3F333
:1047200008033B6600237B66D7E9184522462B46E3
:104730004FF000004FF00001590141EAD2615001F1
:1047400002460B462146511AB961294663EB010323
:10475000FB614FF000024FF00003D7E906AB59466A
:104760008B01514643EA916351468A015146B2EBAF
:104770000108594663EB01094FF000024FF00003B6
:104780004FEAC90343EA58734FEAC8029046994674
:10479000234618EB03033B612B4649EB03037B6184
:1047A0004FF000024FF00003D7E9044529464B02C1
:1047B000214643EAD15321464A0210461946D7F80A
:1047C000AC300022BB65FA65D7E91623FBF770FD14
:1047D00002460B461346C7F8B43065E00038024085
:1047E0000024F40000127A003D4B5B689B09002214
:1047F00018461146C0F308033B6500237B65D7E9E3
:10480000148942464B464FF000004FF00001590119
:1048100041EAD261500102460B464146511AB96045
:10482000494663EB0103FB604FF000024FF00003C9
:10483000D7E902AB59468B01514643EA9163514691
:104840008A015146541A594663EB01054FF00002A4
:104850004FF00003EB0043EA5473E20014461D4698
:104860004346E3183B604B4645EB03037B604FF048
:1048700000024FF00003D7E9004529468B0221468C
:1048800043EA915321468A0210461946D7F8AC30C4
:104890000022BB64FA64D7E91223FBF709FD024644
:1048A0000B461346C7F8B4300D4B5B681B0F03F083
:1048B0000703C7F8A430D7F8B420D7F8A430B2FB68
:1048C000F3F3C7F8B03003E0064BC7F8B03000BFD1
:1048D000D7F8B0301846B837BD46BDE8B08F00BF36
:1048E000003802400024F40080B586B000AF786044
:1048F0007B68002B01D101238DE27B681B6803F0EC
:104900000103002B00F08380944B9B6803F00C03A1
:10491000042B19D0914B9B6803F00C03082B06D194
:104920008E4B5B6803F48003B3F5800F0CD08B4B88
:104930009B6803F00C030C2B12D1884B5B6803F4CB
:104940008003B3F5800F0BD1844B1B6803F4003355
:10495000002B5BD07B685B68002B57D101235AE2A8
:104960007B685B68B3F5803F06D17C4B1B687B4A54
:1049700043F4803313601DE07B685B68B3F5A02FC0
:104980000CD1764B1B68754A43F480231360734B3C
:104990001B68724A43F4803313600BE06F4B1B6853
:1049A0006E4A23F4803313606C4B1B686B4A23F40C
:1049B000802313607B685B68002B13D0FEF7C2F97D
:1049C000386108E0FEF7BEF902463B69D31A642B52
:1049D00001D903231FE2614B1B6803F40033002B52
:1049E000F0D014E0FEF7AEF9386108E0FEF7AAF95E
:1049F00002463B69D31A642B01D903230BE2574BC0
:104A00001B6803F40033002BF0D100E000BF7B688B
:104A10001B6803F00203002B6FD0504B9B6803F020
:104A20000C03002B17D04D4B9B6803F00C03082B95
:104A300005D14A4B5B6803F48003002B0BD0474B36
:104A40009B6803F00C030C2B1CD1444B5B6803F4F4
:104A50008003002B16D1414B1B6803F00203002B8F
:104A600005D07B68DB68012B01D00123D3E13B4BF0
:104A70001B6823F0F8027B681B69DB00374913438E
:104A80000B603AE07B68DB68002B20D0344B0122BE
:104A90001A60FEF757F9386108E0FEF753F902464D
:104AA0003B69D31A022B01D90323B4E12B4B1B68BA
:104AB00003F00203002BF0D0284B1B6823F0F80210
:104AC0007B681B69DB00254913430B6015E0244B11
:104AD00000221A60FEF736F9386108E0FEF732F975
:104AE00002463B69D31A022B01D9032393E11B4BE6
:104AF0001B6803F00203002BF0D17B681B6803F0F6
:104B00000803002B36D07B685B69002B16D0154B51
:104B100001221A60FEF716F9386108E0FEF712F973
:104B200002463B69D31A022B01D9032373E10B4BD5
:104B30005B6F03F00203002BF0D01BE0094B002257
:104B40001A60FEF7FFF838610EE0FEF7FBF8024648
:104B50003B69D31A022B07D903235CE100380240DA
:104B600000004742800E47428A4B5B6F03F002030E
:104B7000002BEAD17B681B6803F00403002B00F0D4
:104B800097800023FB75834B1B6C03F08053002B35
:104B90000FD10023BB607F4B1B6C7E4A43F08053D8
:104BA00013647C4B1B6C03F08053BB60BB68012318
:104BB000FB75794B1B6803F48073002B18D1764B7F
:104BC0001B68754A43F480731360FEF7BBF83861C5
:104BD00008E0FEF7B7F802463B69D31A022B01D969
:104BE000032318E16C4B1B6803F48073002BF0D097
:104BF0007B689B68012B06D1664B1B6F654A43F0AF
:104C0000010313671CE07B689B68052B0CD1614B8B
:104C10001B6F604A43F0040313675E4B1B6F5D4AD2
:104C200043F0010313670BE05A4B1B6F594A23F003
:104C300001031367574B1B6F564A23F00403136796
:104C40007B689B68002B15D0FEF77CF838610AE082
:104C5000FEF778F802463B69D31A41F28832934254
:104C600001D90323D7E04B4B1B6F03F00203002B4A
:104C7000EED014E0FEF766F838610AE0FEF762F85D
:104C800002463B69D31A41F28832934201D9032389
:104C9000C1E0404B1B6F03F00203002BEED1FB7D04
:104CA000012B05D13B4B1B6C3A4A23F08053136414
:104CB0007B689B69002B00F0AD80364B9B6803F04E
:104CC0000C03082B60D07B689B69022B45D1334BCA
:104CD00000221A60FEF736F8386108E0FEF732F875
:104CE00002463B69D31A022B01D9032393E0294BD7
:104CF0001B6803F00073002BF0D17B68DA697B68D6
:104D00001B6A1A437B685B6A9B011A437B689B6A38
:104D10005B08013B1B041A437B68DB6A1B061A43D2
:104D20007B681B6B1B071B4913434B601B4B01220A
:104D30001A60FEF707F8386108E0FEF703F802464C
:104D40003B69D31A022B01D9032364E0114B1B6882
:104D500003F00073002BF0D05CE0104B00221A60CF
:104D6000FDF7F0FF386108E0FDF7ECFF02463B6914
:104D7000D31A022B01D903234DE0064B1B6803F025
:104D80000073002BF0D145E07B689B69012B07D1B4
:104D9000012340E0003802400070004060004742BC
:104DA0001F4B5B68FB607B689B69012B30D0FB6805
:104DB00003F480027B68DB699A4229D1FB6803F027
:104DC0003F027B681B6A9A4222D1FA6847F6C07399
:104DD00013407A68526A9201934219D1FB6803F436
:104DE00040327B689B6A5B08013B1B049A420FD1EF
:104DF000FB6803F070627B68DB6A1B069A4207D18E
:104E0000FB6803F0E0427B681B6B1B079A4201D0F2
:104E1000012300E0002318461837BD4680BD00BFBF
:104E20000038024080B582B000AF78607B68002B0C
:104E300001D1012341E07B6893F83D30DBB2002BC8
:104E400006D17B68002283F83C207868FDF740FD9E
:104E50007B68022283F83D207B681A687B680433F4
:104E60001946104600F0DAFA7B68012283F84620E2
:104E70007B68012283F83E207B68012283F83F2073
:104E80007B68012283F840207B68012283F841205F
:104E90007B68012283F842207B68012283F843204B
:104EA0007B68012283F844207B68012283F8452037
:104EB0007B68012283F83D20002318460837BD4651
:104EC00080BD80B582B000AF78607B68002B01D1D7
:104ED000012341E07B6893F83D30DBB2002B06D123
:104EE0007B68002283F83C20786800F039F87B6802
:104EF000022283F83D207B681A687B6804331946D8
:104F0000104600F08BFA7B68012283F846207B680C
:104F1000012283F83E207B68012283F83F207B68D2
:104F2000012283F840207B68012283F841207B68BE
:104F3000012283F842207B68012283F843207B68AA
:104F4000012283F844207B68012283F845207B6896
:104F5000012283F83D20002318460837BD4680BD56
:104F600080B483B000AF786000BF0C37BD465DF8F9
:104F7000047B704780B582B000AF78607B681B68A7
:104F80001B6903F00203022B22D17B681B68DB68DC
:104F900003F00203022B1BD17B681B686FF0020237
:104FA0001A617B6801221A777B681B689B6903F092
:104FB0000303002B03D0786800F011FA05E078684D
:104FC000FBF798FC786800F014FA7B6800221A77E7
:104FD0007B681B681B6903F00403042B22D17B68E8
:104FE0001B68DB6803F00403042B1BD17B681B6880
:104FF0006FF004021A617B6802221A777B681B68D3
:105000009B6903F44073002B03D0786800F0E7F944
:1050100005E07868FBF76EFC786800F0EAF97B68D9
:1050200000221A777B681B681B6903F00803082BB2
:1050300022D17B681B68DB6803F00803082B1BD1B7
:105040007B681B686FF008021A617B6804221A777C
:105050007B681B68DB6903F00303002B03D07868CF
:1050600000F0BDF905E07868FBF744FC786800F0D3
:10507000C0F97B6800221A777B681B681B6903F004
:105080001003102B22D17B681B68DB6803F0100330
:10509000102B1BD17B681B686FF010021A617B68B4
:1050A00008221A777B681B68DB6903F44073002BC6
:1050B00003D0786800F093F905E07868FBF71AFCF4
:1050C000786800F096F97B6800221A777B681B6885
:1050D0001B6903F00103012B0ED17B681B68DB68A1
:1050E00003F00103012B07D17B681B686FF00102FD
:1050F0001A61786800F069F97B681B681B6903F026
:105100008003802B0ED17B681B68DB6803F0800373
:10511000802B07D17B681B686FF080021A6178686A
:1051200000F0ECFC7B681B681B6903F04003402B1C
:105130000ED17B681B68DB6803F04003402B07D16E
:105140007B681B686FF040021A61786800F05BF9B9
:105150007B681B681B6903F02003202B0ED17B6842
:105160001B68DB6803F02003202B07D17B681B68DA
:105170006FF020021A61786800F0B6FC00BF0837B3
:10518000BD4680BD80B586B000AFF860B9607A607A
:105190000023FB75FB6893F83C30012B01D10223FF
:1051A00048E0FB68012283F83C207B680C2B39D84F
:1051B00001A252F823F000BFED510008255200086B
:1051C0002552000825520008FB510008255200080E
:1051D00025520008255200080952000825520008EF
:1051E000255200082552000817520008FB681B686A
:1051F000B968184600F0B2F917E0FB681B68B96897
:10520000184600F01BFA10E0FB681B68B9681846E6
:1052100000F08AFA09E0FB681B68B968184600F0DC
:10522000F7FA02E00123FB7500BFFB68002283F858
:105230003C20FB7D18461837BD4680BD80B584B044
:1052400000AF786039600023FB737B6893F83C30D3
:10525000012B01D10223B4E07B68012283F83C20BA
:105260007B68022283F83D207B681B689B68BB60DB
:10527000BB6823F07703BB60BB6823F47F43BB604C
:105280007B681B68BA689A603B681B68B3F5005F6F
:105290003ED0B3F5005F00F28780B3F5805F00F089
:1052A0008680B3F5805F7FD8702B1AD0702B7BD8A7
:1052B000602B50D0602B77D8502B3CD0502B73D81C
:1052C000402B58D0402B6FD8302B64D0302B6BD86C
:1052D000202B60D0202B67D8002B5CD0102B5AD00D
:1052E00062E07B6818683B6899683B685A683B686D
:1052F000DB6800F05DFB7B681B689B68BB60BB687C
:1053000043F07703BB607B681B68BA689A604FE024
:105310007B6818683B6899683B685A683B68DB683B
:1053200000F046FB7B681B689A687B681B6842F448
:1053300080429A603CE07B6818683B6859683B682B
:10534000DB681A4600F0BAFA7B681B6850211846E1
:1053500000F013FB2CE07B6818683B6859683B68D9
:10536000DB681A4600F0D9FA7B681B686021184692
:1053700000F003FB1CE07B6818683B6859683B68D9
:10538000DB681A4600F09AFA7B681B6840211846D1
:1053900000F0F3FA0CE07B681A683B681B6819465A
:1053A000104600F0EAFA03E00123FB7300E000BFBF
:1053B0007B68012283F83D207B68002283F83C2033
:1053C000FB7B18461037BD4680BD80B483B000AF6C
:1053D000786000BF0C37BD465DF8047B704780B431
:1053E00083B000AF786000BF0C37BD465DF8047B2A
:1053F000704780B483B000AF786000BF0C37BD4603
:105400005DF8047B704780B483B000AF786000BF64
:105410000C37BD465DF8047B7047000080B485B052
:1054200000AF786039607B681B68FB607B68404A2E
:10543000934213D07B68B3F1804F0FD07B683D4A15
:1054400093420BD07B683C4A934207D07B683B4A2F
:10545000934203D07B683A4A934208D1FB6823F019
:105460007003FB603B685B68FA681343FB607B6812
:105470002F4A93422BD07B68B3F1804F27D07B68B3
:105480002C4A934223D07B682B4A93421FD07B68DF
:105490002A4A93421BD07B68294A934217D07B68E3
:1054A000284A934213D07B68274A93420FD07B68E7
:1054B000264A93420BD07B68254A934207D07B68EB
:1054C000244A934203D07B68234A934208D1FB6865
:1054D00023F44073FB603B68DB68FA681343FB60AE
:1054E000FB6823F080023B685B691343FB607B68C9
:1054F000FA681A603B689A687B68DA623B681A68E7
:105500007B689A627B680A4A934203D07B680C4AA4
:10551000934203D13B681A697B681A637B68012256
:105520005A6100BF1437BD465DF8047B704700BF69
:10553000000001400004004000080040000C004052
:105540000004014000400140004401400048014087
:1055500000180040001C00400020004080B487B0CC
:1055600000AF786039607B681B6A23F001027B68BA
:105570001A627B681B6A7B617B685B683B617B6846
:105580009B69FB60FB6823F07003FB60FB6823F002
:105590000303FB603B681B68FA681343FB607B698D
:1055A00023F002037B613B689B687A6913437B614C
:1055B0007B68204A934203D07B681F4A93420CD1F8
:1055C0007B6923F008037B613B68DB687A691343DE
:1055D0007B617B6923F004037B617B68154A9342FE
:1055E00003D07B68144A934211D13B6923F4807342
:1055F0003B613B6923F400733B613B685B693A693B
:1056000013433B613B689B693A6913433B617B6889
:105610003A695A607B68FA689A613B685A687B68A5
:105620005A637B687A691A6200BF1C37BD465DF811
:10563000047B7047000001400004014080B487B043
:1056400000AF786039607B681B6A23F010027B68CA
:105650001A627B681B6A7B617B685B683B617B6865
:105660009B69FB60FB6823F4E043FB60FB6823F469
:105670004073FB603B681B681B02FA681343FB60C6
:105680007B6923F020037B613B689B681B017A697F
:1056900013437B617B68224A934203D07B68214A93
:1056A00093420DD17B6923F080037B613B68DB680B
:1056B0001B017A6913437B617B6923F040037B61A3
:1056C0007B68174A934203D07B68164A934213D1F2
:1056D0003B6923F480633B613B6923F400633B61D6
:1056E0003B685B699B003A6913433B613B689B697C
:1056F0009B003A6913433B617B683A695A607B6857
:10570000FA689A613B685A687B689A637B687A6931
:105710001A6200BF1C37BD465DF8047B704700BFAE
:10572000000001400004014080B487B000AF786001
:1057300039607B681B6A23F480727B681A627B681D
:105740001B6A7B617B685B683B617B68DB69FB6034
:10575000FB6823F07003FB60FB6823F00303FB602E
:105760003B681B68FA681343FB607B6923F4007392
:105770007B613B689B681B027A6913437B617B6892
:10578000214A934203D07B68204A93420DD17B6922
:1057900023F400637B613B68DB681B027A69134377
:1057A0007B617B6923F480637B617B68164A93424B
:1057B00003D07B68154A934213D13B6923F480538D
:1057C0003B613B6923F400533B613B685B691B0110
:1057D0003A6913433B613B689B691B013A69134378
:1057E0003B617B683A695A607B68FA68DA613B68BA
:1057F0005A687B68DA637B687A691A6200BF1C3773
:10580000BD465DF8047B7047000001400004014084
:1058100080B487B000AF786039607B681B6A23F47E
:1058200080527B681A627B681B6A3B617B685B689D
:105830007B617B68DB69FB60FB6823F4E043FB6012
:10584000FB6823F44073FB603B681B681B02FA682B
:105850001343FB603B6923F400533B613B689B6847
:105860001B033A6913433B617B68124A934203D09E
:105870007B68114A934209D17B6923F480437B61A1
:105880003B685B699B017A6913437B617B687A693A
:105890005A607B68FA68DA613B685A687B681A6408
:1058A0007B683A691A6200BF1C37BD465DF8047B0D
:1058B000704700BF000001400004014080B487B081
:1058C00000AFF860B9607A60FB681B6A7B61FB68B7
:1058D0001B6A23F00102FB681A62FB689B693B614B
:1058E0003B6923F0F0033B617B681B013A6913437A
:1058F0003B617B6923F00A037B617A69BB681343D0
:105900007B61FB683A699A61FB687A691A6200BF39
:105910001C37BD465DF8047B704780B487B000AF8C
:10592000F860B9607A60FB681B6A23F01002FB68BC
:105930001A62FB689B697B61FB681B6A3B617B6940
:1059400023F470437B617B681B037A6913437B619B
:105950003B6923F0A0033B61BB681B013A69134319
:105960003B61FB687A699A61FB683A691A6200BF19
:105970001C37BD465DF8047B704780B485B000AF2E
:10598000786039607B689B68FB60FB6823F070037C
:10599000FB603A68FB68134343F00703FB607B68D6
:1059A000FA689A6000BF1437BD465DF8047B704703
:1059B00080B487B000AFF860B9607A603B60FB6884
:1059C0009B687B617B6923F47F437B613B681A02A0
:1059D0007B681A43BB6813437A6913437B61FB6896
:1059E0007A699A6000BF1C37BD465DF8047B70473A
:1059F00080B485B000AF786039607B6893F83C3044
:105A0000012B01D102235AE07B68012283F83C205C
:105A10007B68022283F83D207B681B685B68FB6023
:105A20007B681B689B68BB60FB6823F07003FB60AE
:105A30003B681B68FA681343FB607B681B68FA6865
:105A40005A607B681B68214A934222D07B681B689E
:105A5000B3F1804F1DD07B681B681D4A934218D05C
:105A60007B681B681B4A934213D07B681B681A4AE9
:105A700093420ED07B681B68184A934209D07B681A
:105A80001B68174A934204D07B681B68154A9342EF
:105A90000CD1BB6823F08003BB603B685B68BA68CD
:105AA0001343BB607B681B68BA689A607B680122FD
:105AB00083F83D207B68002283F83C2000231846B1
:105AC0001437BD465DF8047B704700BF00000140FD
:105AD0000004004000080040000C004000040140A9
