:020000040800F2
:1000000000000220191D0008F51A0008FB1A00085C
:10001000011B0008071B00080D1B00080000000062
:10002000000000000000000000000000131B00089A
:10003000211B0008000000002F1B00083D1B0008CA
:10004000691D0008691D0008691D0008691D000878
:10005000691D0008691D0008691D0008691D000868
:10006000691D0008691D0008691D0008691D000858
:10007000691D0008691D0008691D0008691D000848
:10008000691D0008691D0008691D0008491B00085A
:100090005D1B0008691D0008691D0008711B000830
:1000A000691D0008691D0008691D0008691D000818
:1000B000691D0008851B0008691D0008691D0008EE
:1000C000691D0008691D0008691D0008691D0008F8
:1000D000691D0008691D0008991B0008691D0008BA
:1000E000AD1B0008691D0008691D0008691D000896
:1000F000691D0008691D0008691D0008691D0008C8
:10010000691D0008691D0008691D0008691D0008B7
:10011000691D0008691D0008691D0008691D0008A7
:10012000691D0008691D0008691D0008691D000897
:10013000691D00080000000000000000BD1B000851
:10014000D11B0008691D0008691D0008691D000811
:10015000691D0008691D0008691D0008691D000867
:10016000691D0008691D0008691D0008691D000857
:10017000691D0008691D0008691D000800000000D5
:1001800000000000691D00080000000000000000E1
:10019000691D00080000000000000000691D000843
:1001A000000000000000000000000000691D0008C1
:1001B000691D0008691D0008691D0008691D000807
:0401C000691D0008AD
:1001D00010B5054C237833B9044B13B10448AFF381
:1001E00000800123237010BD740000200000000077
:1001F0009078000808B5034B1BB103490348AFF3DF
:10020000008008BD00000000780000209078000801
:1002100001F0FF01102A2BDB10F0070F08D010F8B7
:10022000013B013A8B422DD010F0070F42B3F6D1BB
:10023000F0B441EA012141EA014122F007047FF0D4
:1002400000070023F0E80256083C85EA010586EA2B
:10025000010685FA47F5A3FA87F586FA47F6A5FA67
:1002600087F68EB9EED1F0BC01F0FF0102F0070273
:1002700032B110F8013B013A83EA010313B1F8D11E
:100280000020704701387047002D06BF35460338FF
:10029000073815F0010F07D1013015F4807F02BF38
:1002A000013015F4C03F0130F0BC0138704700BF89
:1002B00053B94AB9002908BF00281CBF4FF0FF31CD
:1002C0004FF0FF3000F074B9ADF1080C6DE904CEC9
:1002D00000F006F8DDF804E0DDE9022304B0704721
:1002E0002DE9F047089D04468E46002B4DD18A42E9
:1002F000944669D9B2FA82F252B101FA02F3C2F11C
:10030000200120FA01F10CFA02FC41EA030E9440AC
:100310004FEA1C48210CBEFBF8F61FFA8CF708FBCD
:1003200016E341EA034306FB07F199420AD91CEBA5
:10033000030306F1FF3080F01F81994240F21C81D7
:10034000023E63445B1AA4B2B3FBF8F008FB10331F
:1003500044EA034400FB07F7A7420AD91CEB040454
:1003600000F1FF3380F00A81A74240F20781644424
:10037000023840EA0640E41B00261DB1D4400023A9
:10038000C5E900433146BDE8F0878B4209D9002D0D
:1003900000F0EF800026C5E9000130463146BDE897
:1003A000F087B3FA83F6002E4AD18B4202D3824201
:1003B00000F2F980841A61EB030301209E46002DB0
:1003C000E0D0C5E9004EDDE702B9FFDEB2FA82F205
:1003D000002A40F09280A1EB0C014FEA1C471FFA63
:1003E0008CFE0126200CB1FBF7F307FB131140EA4A
:1003F00001410EFB03F0884208D91CEB010103F117
:10040000FF3802D2884200F2CB804346091AA4B2D8
:10041000B1FBF7F007FB101144EA01440EFB00FEAC
:10042000A64508D91CEB040400F1FF3102D2A64511
:1004300000F2BB800846A4EB0E0440EA03409CE7B0
:10044000C6F12007B34022FA07FC4CEA030C20FA5D
:1004500007F401FA06F31C43F9404FEA1C4900FA7D
:1004600006F3B1FBF9F8200C1FFA8CFE09FB1811FA
:1004700040EA014108FB0EF0884202FA06F20BD96D
:100480001CEB010108F1FF3A80F08880884240F2BD
:100490008580A8F102086144091AA4B2B1FBF9F001
:1004A00009FB101144EA014100FB0EFE8E4508D9FC
:1004B0001CEB010100F1FF346CD28E456AD9023881
:1004C000614440EA0840A0FB0294A1EB0E01A14266
:1004D000C846A64656D353D05DB1B3EB080261EBD4
:1004E0000E0101FA07F722FA06F3F1401F43C5E9AE
:1004F000007100263146BDE8F087C2F12003D840E4
:100500000CFA02FC21FA03F3914001434FEA1C4725
:100510001FFA8CFEB3FBF7F007FB10360B0C43EA17
:10052000064300FB0EF69E4204FA02F408D91CEBC7
:10053000030300F1FF382FD29E422DD902386344C5
:100540009B1B89B2B3FBF7F607FB163341EA034165
:1005500006FB0EF38B4208D91CEB010106F1FF38B4
:1005600016D28B4214D9023E6144C91A46EA0046AB
:1005700038E72E46284605E70646E3E61846F8E63D
:100580004B45A9D2B9EB020864EB0C0E0138A3E786
:100590004646EAE7204694E74046D1E7D0467BE767
:1005A000023B614432E7304609E76444023842E7DF
:1005B000704700BF80B584B000AFB9607A603B601F
:1005C0000346FB730E4804F0F1FF7B689AB240F6D5
:1005D000B833B9680A4804F091FB3B68002B0AD095
:1005E000074805F017F83B689AB240F6B833B96887
:1005F000034804F015FC00BF1037BD4680BD00BFA6
:100600002801002080B582B000AF786039600122F7
:100610003968786805F0A4FD034618460837BD46DA
:1006200080BD000080B500AF024805F0D1FF034651
:10063000184680BDB001002080B500AF024806F02A
:1006400001F80346184680BDB001002080B582B095
:1006500002AF01220121072005F0CAFC094B0A4A1A
:10066000C3F80422074B094AC3F80822084B009339
:10067000044B00220021074805F0C6FE00BFBD461E
:1006800080BD00BF38040020250600083906000898
:10069000D07C0008B001002080B582B000AF0346D6
:1006A000FB80FB88402B1BD140211B4802F0A0FCA3
:1006B0000346002B06D1194B1B7843F00103DAB235
:1006C000164B1A704021144802F092FC0346002B8E
:1006D00006D0124B1B7823F00103DAB20F4B1A70CD
:1006E000FB88802B14D180210B4802F081FC03464B
:1006F000002B03D10A4B1A78094B1A708021064847
:1007000002F076FC0346002B02D0054B01221A7042
:1007100000BF0837BD4680BD000402409C06002093
:100720009E06002080B500AF00224FF400710548FE
:1007300002F076FC01224FF40071024802F070FCD6
:1007400000BF80BD0004024080B582B000AF786079
:100750007B68DBB21A464FF48071034802F060FCFC
:1007600000BF0837BD4680BD0004024080B483B09E
:1007700000AF78607B68D3ED007AFCEEE77A17EE85
:10078000902A7B685A617B685B6907EE903AF8EEC5
:10079000677A7B68C3ED117A7B68D3ED117AFCEE42
:1007A000E77A17EE902A7B689A647B680022DA6405
:1007B0007B6800221A647B680022DA637B6800226F
:1007C00083F8382000BF0C37BD465DF8047B7047C6
:1007D00080B584B000AF78607B68002B39D01F4BA8
:1007E000FB60FB681B6A002B11D0FB689B687A6872
:1007F000D243D20FD2B2104698477B68002B02DD5D
:100800004FF0FF3200E00122FB68DA610EE0FB6886
:100810009B687A68D20F104698477B68002B01DDF1
:10082000012201E04FF0FF32FB68DA617B68002BA8
:10083000B8BF5B421A46FB685A63F868FFF796FF39
:10084000074B1B78DBB243F00103DAB2044B1A709A
:1008500000E000BF1037BD4680BD00BF4C06002041
:100860001907002080B584B000AF7860796820480F
:1008700005F034FF1F4BFB60FB689B697A68D31A55
:10088000BB60B9681C4805F029FFBB68002B2BD062
:10089000FB689B68BA68D20F10469847BB68002B6C
:1008A00001DD012201E04FF0FF32FB68DA61BB6835
:1008B000002BB8BF5B421A46FB685A63FB685B6B50
:1008C00019460D4805F00AFFF868FFF74FFFB968B1
:1008D000094805F003FF094B1B78DBB243F0010325
:1008E000DAB2064B1A7000E000BF1037BD4680BD7B
:1008F000A87800084C060020BC78000819070020E2
:1009000080B483B000AF1D4B7B601D4B1B78DBB206
:1009100003F00103DBB2002B07D01A4B9B6C7A6803
:100920009A4202D9174B9B6C7B60174B00221A70BE
:10093000144B9B6C7A689A4207D1134B1B78DBB23D
:1009400043F00103DAB2104B1A70104B1B687A683F
:100950005A630B4B1B78DBB2002B04D10B4B1B688B
:100960004FF6DC725A63094B1B687A685A6300BF02
:100970000C37BD465DF8047B704700BF3F420F0057
:10098000190700204C0600201A070020E000002074
:1009900080B584B000AF78607B686E4A934240F0C7
:1009A000D5806C4B1B685B6BFB606A4B1B684FF61A
:1009B000DC725A63684B1B7803F00103002B0DD0E7
:1009C000664B1B7803F00103002B07D0644B1B78A8
:1009D000DBB223F00103DAB2614B1A70614B1B7872
:1009E000DBB203F00103002B05D15F4B9A6CFB686F
:1009F000D31A5D4A93645C4BBB60BB68DA6CBB681E
:100A00005B6B9A4224D2594B1B78002B20D1BB68D8
:100A1000DB689847BB68DB6C5A1CBB68DA64BB6850
:100A2000DA69BB689B691A44BB689A61BB68DA6C77
:100A3000BB685B6B9A420BD3BB68012283F83820FA
:100A4000474B1B78DBB223F00103DAB2444B1A7038
:100A5000BB68DB6B002B42D1BB681B6C5A1CBB68AC
:100A60001A64BB6893ED117ABB68D3ED117A37EE47
:100A7000A76ABB681B6C9B00013307EE903AF8EE47
:100A8000676AC6EE267A77EE677ABB68C3ED117A9D
:100A9000BB6893ED117ABB685B6807EE903AF8EE9D
:100AA000677AB4EEE77AF1EE10FA0CD8BB685B68AF
:100AB00007EE903AF8EE677ABB68C3ED117ABB682F
:100AC000DA6CBB68DA63BB68DA6CBB685B6B5B08CB
:100AD0009A422CD3BB68DA6CBB68DA6327E0BB6848
:100AE000DA6CBB68596BBB68DB6BCB1A9A421ED3BE
:100AF000BB6893ED117ABB681B6C9B00013307EE5A
:100B0000903AF8EE677A67EE276ABB681B6C9B0029
:100B1000013B07EE903AB8EE677AC6EE877ABB687B
:100B2000C3ED117ABB681B6C5A1EBB681A64BB68A4
:100B3000D3ED117AFCEEE77A17EE902ABB689A643F
:100B4000FFF7DEFE034B1B6800225A6200BF10371E
:100B5000BD4680BDE00000209D0600209C060020D0
:100B6000190700201A0700204C0600209E060020CE
:100B700080B500AF044B9B6A1846FFF729FE034B74
:100B800000221A7000BF80BD4C0600209E06002087
:100B900080B500AFFFF7B4FE00BF0B4B1B78DBB294
:100BA000002B03D0094B1B78002BF6D0074B1B788A
:100BB000012B01D1FFF7DCFF642001F049F9044B60
:100BC00001221A7000BF80BD190700209E06002078
:100BD0001407002080B500AF2E4B1B7843F00103B3
:100BE000DAB22C4B1A702C4BDB6A1A462A4B5A602D
:100BF0002A48FFF7EDFDFFF7CBFF4FF4FA7001F045
:100C000027F9244B1B7823F00103DAB2214B1A7029
:100C1000214B5B6A1846FFF7DBFDFFF7B9FF4FF486
:100C2000FA7001F015F91B4B1B7843F00103DAB29F
:100C3000184B1A70184B1B6B1A46174B5A60174803
:100C4000FFF7C6FDFFF7A4FF4FF4FA7001F000F9BB
:100C5000104B1B7823F00103DAB20E4B1A700E4BC7
:100C60005B6A1846FFF7B4FDFFF792FF4FF4FA7086
:100C700001F0EEF8084B00229A61074B01221A742A
:100C8000054B4FF4FA725A60054805F0ADFD00BF00
:100C900080BD00BF9D0600204C060020001F0AFA00
:100CA000E478000880B582B000AF00237B600023A9
:100CB0007B6010212D4805F044FB034623F01F0202
:100CC0007B6803F01F0313431A461021274805F0E1
:100CD000E8FA01F0B1F803461946244805F067FC2C
:100CE000642001F0B5F81021204805F02AFB0346E6
:100CF00003F01F037B6079681D4805F0EFFC0023BB
:100D00007B607021194805F01CFB03461B1503F09E
:100D100003037B6001F090F803461946134805F081
:100D200046FC7968134805F0D9FC642001F090F87E
:100D300001237B6070210D4805F003FB034623F47B
:100D400040127B681B0503F4401313431A467021BD
:100D5000064805F0A6FA7968064805F0BFFC064B80
:100D600001221A7000BF0837BD4680BDB0010020C7
:100D7000F0780008007900081407002080B485B0DE
:100D800000AF78600023FB600023FB7215E0FB7A64
:100D90007A6813441A78FB7A79680B44D243D2B24A
:100DA0001A70FB7A7A6813441B78002B02D1FB6817
:100DB0000133FB60FB7A0133FB72FB7A092BE6D926
:100DC000FB68082B03DC084B00221A7005E0FB6867
:100DD000092B02D1044B01221A7000BF1437BD4603
:100DE0005DF8047B704700BF1807002080B5AAB0EB
:100DF00000AF8B4B1B689B680021184605F0FCFC7C
:100E000000F0B4FF00F0F2F900F094FB00F068FB92
:100E100000F058FA00F0C6FA00F038FB00F08AFA49
:100E2000FFF714FC00217F4802F0BCFF7E4805F06C
:100E3000DBFC7E4B7E4A9A607C4B7E4ADA607B4BC1
:100E40007D4A1A60794B64225A60784B00221A74EA
:100E5000764B01221A62754B6422DA62734BC82208
:100E60001A63724B4FF4FA725A62704B42F210726C
:100E70009A62724B00221A70714B00225A61704BB9
:100E800000229A616E4B0122DA616D4B00221A60DA
:100E90006B4B00225A606A4B00229A60684B00221A
:100EA000DA60674B01221A61654B01221A62644BBA
:100EB0000E225A626249634801F0EAF80346002BA9
:100EC00001D000F06BFC5F4801F0C2F90346002B33
:100ED00001D000F063FC03215A4801F00FFB0346E8
:100EE000002B01D000F05AFC574805F07DFC002390
:100EF00087F89F3000BF514B1B78002BFBD0534B22
:100F000000221A700023C7F8A03010E0504AD7F82A
:100F1000A0301344197807F19402D7F8A030134495
:100F20000A461A70D7F8A0300133C7F8A030D7F8B6
:100F3000A030092BEADD07F194031846FFF71EFFE6
:100F4000444B1B78012B04D1414B1B7887F8A73009
:100F50002CE0404B1B78002B28D13D4B1B781BB25B
:100F6000A7F88430B7F984309AB2394B5B789BB2DA
:100F70001B029BB213449BB21BB2A7F88430344BC4
:100F80009B781BB2A7F88630B7F986309AB2304BFF
:100F9000DB789BB21B029BB213449BB21BB2A7F837
:100FA00086300A222A492C4803F0DCFF2B4B1B78A1
:100FB000012B22D197F8A7302A2B15D02A2B99DCA8
:100FC0000A2B02D01A2B04D000E1214B00221A7008
:100FD000FCE0FFF7FFFDFFF7DBFD0A2000F038FF24
:100FE0001B4B00221A70F1E01A4B1B78002B40F0CB
:100FF000EC80174B00221A70E7E0184B1B78002B8F
:101000007FF478AF97F8A730D12B00F3CE80A02BD8
:1010100026DA012B00F0B380022B00F0B480C4E08C
:1010200010000020E0000020B47C00084C060020E6
:10103000490700082507000800007A44120700202D
:10104000A006002090000020BC7C000816070020AD
:10105000F0060020180700206C0100201307002074
:10106000A03B312B00F2A18001A252F823F000BF77
:1010700039110008551100085D110008AB11000876
:10108000AB110008AB110008AB110008AB11000850
:10109000AB110008AB110008AB110008AB11000840
:1010A000AB110008AB110008AB110008AB11000830
:1010B000651100086D110008AB110008AB110008A4
:1010C000AB110008AB110008AB110008AB11000810
:1010D000AB110008AB110008AB110008AB11000800
:1010E000AB110008AB110008AB110008AB110008F0
:1010F000AB110008AB110008AB110008AB110008E0
:10110000AB110008AB110008AB110008AB110008CF
:10111000AB110008AB110008AB110008AB110008BF
:10112000AB110008AB110008AB110008AB110008AF
:101130008F1100089B110008254B1B78002B05D14F
:1011400044F62060FFF78EFBFFF722FD214B0022C3
:101150001A7031E01F4B00221A702DE01D4B002247
:101160001A7029E01B4B00221A7025E00A221A4946
:101170001A4803F0F7FE174B00221A701CE0154BBB
:1011800000221A7018E0134B00221A7014E0FFF7C7
:1011900089FD0A2000F05CFE0EE0FFF71BFDFFF763
:1011A000F7FC0A2000F054FE06E00D4B01221A70F5
:1011B0000C4B01221A7000BF0B4B00221A7000BFAB
:1011C000074B1B78002BFBD094E600BF92E600BFD4
:1011D00018070020F0060020E40600206C01002023
:1011E00016070020170700201207002080B594B0D2
:1011F00000AF07F11C0334220021184605F066FAFF
:1012000007F1080300221A605A609A60DA601A61D6
:1012100000237B60294B1B6C284A43F080531364E6
:10122000264B1B6C03F080537B607B6800233B6084
:10123000234B1B68224A43F440431360204B1B6836
:1012400003F440433B603B680223FB610123BB6224
:101250001023FB6202237B630023BB630823FB6331
:10126000A0233B6402237B640223BB640223FB6450
:1012700007F11C03184602F04FFA0346002B01D079
:1012800000F08CFA0F23BB600223FB6000233B615C
:101290004FF4A0537B614FF48053BB6107F1080307
:1012A0000521184601F0EEFE0346002B01D000F0A8
:1012B00075FA00BF5037BD4680BD00BF0038024000
:1012C0000070004080B500AF184B194A1A60174BE8
:1012D00004225A60154B00229A60144B4FF0807222
:1012E000DA60124B4FF480321A61104B4FF4C00297
:1012F0005A610E4B00221A760C4B00225A760B4B89
:1013000000229A76094B0022DA76084B00221A77DF
:10131000064B00225A77054800F0BEFD0346002B1D
:1013200001D000F03BFA00BF80BD00BF900000205C
:101330000064004080B500AF184B194A1A60174B83
:1013400004225A60154B00229A60144B4FF08072B1
:10135000DA60124B4FF480321A61104B4FF4C00226
:101360005A610E4B00221A760C4B00225A760B4B18
:1013700000229A76094B0022DA76084B00221A776F
:10138000064B00225A77054800F086FD0346002BE5
:1013900001D000F003FA00BF80BD00BFB8000020FC
:1013A0000068004080B58EB000AF07F1280300222E
:1013B0001A605A609A60DA6007F1200300221A600E
:1013C0005A603B1D00221A605A609A60DA601A6106
:1013D0005A619A612B4B2C4A1A602A4B9F225A6001
:1013E000284B00229A60274B4FF6FF72DA60254B9C
:1013F00000221A61234B00229A61224802F02AFC43
:101400000346002B01D000F0C9F94FF48053BB62B2
:1014100007F1280319461B4802F03EFF0346002B44
:1014200001D000F0BBF9174802F063FC0346002B23
:1014300001D000F0B3F900233B6200237B6207F187
:10144000200319460F4803F027FB0346002B01D069
:1014500000F0A4F900237B600023BB600023FB6045
:1014600000237B613B1D00221946064802F0B8FEAE
:101470000346002B01D000F091F900BF3837BD467C
:1014800080BD00BFE00000200004004080B500AF38
:10149000104B114A1A600F4B104A5A600D4B002234
:1014A0009A600C4B0022DA600A4B00221A61094B49
:1014B0000C225A61074B00229A61064B0022DA6126
:1014C000044803F0C6FB0346002B01D000F066F988
:1014D00000BF80BD280100200010014020A10700AE
:1014E00080B500AF114B124A1A60104B4FF4E13235
:1014F0005A600E4B00229A600C4B0022DA600B4BB4
:1015000000221A61094B0C225A61084B00229A6191
:10151000064B0022DA61054803F04EFB0346002B20
:1015200001D000F03BF900BF80BD00BF6C0100207E
:101530000044004080B58AB000AF07F114030022D8
:101540001A605A609A60DA601A6100233B61544B5A
:101550001B6B534A43F004031363514B1B6B03F0A3
:1015600004033B613B690023FB604D4B1B6B4C4A02
:1015700043F0800313634A4B1B6B03F08003FB6053
:10158000FB680023BB60464B1B6B454A43F00103DD
:101590001363434B1B6B03F00103BB60BB68002369
:1015A0007B603F4B1B6B3E4A43F0020313633C4B93
:1015B0001B6B03F002037B607B680022202139480B
:1015C00001F02EFD00224FF44471374801F028FD50
:1015D0004FF400537B614FF40413BB610023FB61A4
:1015E00007F114031946314801F06EFB20237B619B
:1015F0000123BB610023FB6100233B6207F114035D
:101600001946284801F060FB80237B614FF44413A6
:10161000BB610023FB6107F114031946214801F067
:1016200053FB10237B610123BB610023FB6100237B
:101630003B6207F1140319461B4801F045FB4023A8
:101640007B614FF44413BB610023FB6107F114037A
:101650001946154801F038FB4FF440737B610123B4
:10166000BB610023FB6103233B6207F114031946AE
:101670000D4801F029FB00220121172001F05BFA3F
:10168000172001F074FA00220121282001F053FAFA
:10169000282001F06CFA00BF2837BD4680BD00BF8E
:1016A00000380240000002400004024000080240EE
:1016B00080B584B000AFF860B9607A607B689AB298
:1016C0000A23B968034803F019FB7B6818461037F2
:1016D000BD4680BD6C01002080B582B000AF78604F
:1016E000074B01221A70074B1B789BB21A4606491A
:1016F000064803F07CFC00BF0837BD4680BD00BF34
:101700001207002000000020F00600206C010020DD
:1017100080B582B000AF7860044804F0DFFF044B6E
:1017200001221A7000BF0837BD4680BDC87C000882
:101730001507002080B582B000AF7860064B01220B
:101740001A70064B064A0021064800F0C5FD00BF8E
:101750000837BD4680BD00BF1707002008070020DE
:10176000C8060020B800002080B582B000AF7860C5
:10177000064B01221A70064B064A0121064800F06A
:10178000ABFD00BF0837BD4680BD00BF1607002077
:10179000FC060020C80600209000002080B400AFA6
:1017A00072B600BFFEE7000080B483B000AF002334
:1017B0007B60104B5B6C0F4A43F4804353640D4BCA
:1017C0005B6C03F480437B607B6800233B60094BC8
:1017D0001B6C084A43F080531364064B1B6C03F0E8
:1017E00080533B603B6800BF0C37BD465DF8047B0F
:1017F000704700BF0038024080B58CB000AF786001
:1018000007F11C0300221A605A609A60DA601A61BC
:101810007B681B685B4A934257D15B4B1B68013363
:10182000594A1360584B1B68012B0DD10023BB6133
:10183000564B1B6C554A43F000731364534B1B6C9F
:1018400003F00073BB61BB6900237B614F4B1B6BD3
:101850004E4A43F0010313634C4B1B6B03F001032F
:101860007B617B694FF40063FB6102233B620023D1
:101870007B620323BB620923FB6207F11C03194649
:10188000434801F021FA4FF48053FB6102233B628D
:1018900001237B620323BB620923FB6207F11C0364
:1018A00019463B4801F010FA00220021132001F0F4
:1018B00042F9132001F05BF900220021142001F00D
:1018C0003AF9142001F053F958E07B681B68314A5B
:1018D000934253D100233B612C4B1B6C2B4A43F0AA
:1018E00080631364294B1B6C03F080633B613B698D
:1018F000254B1B680133244A1360234B1B68012BC3
:101900000DD10023FB60214B1B6C204A43F0007378
:1019100013641E4B1B6C03F00073FB60FB68002319
:10192000BB601A4B1B6B194A43F002031363174B3E
:101930001B6B03F00203BB60BB684FF44053FB61B9
:1019400002233B6200237B620323BB620923FB6209
:1019500007F11C031946104801F0B6F900220021D6
:101960003F2001F0E8F83F2001F001F900220021BA
:10197000402001F0E0F8402001F0F9F800BF3037D6
:10198000BD4680BD006400401C07002000380240B6
:1019900000000240006800400004024080B584B0AE
:1019A00000AF78607B681B680E4A934215D1002314
:1019B000FB600D4B1B6C0C4A43F0020313640A4B93
:1019C0001B6C03F00203FB60FB68002202211D2058
:1019D00001F0B1F81D2001F0CAF800BF1037BD4674
:1019E00080BD00BF000400400038024080B58CB0CC
:1019F00000AF786007F11C0300221A605A609A60F9
:101A0000DA601A617B681B68364A93422DD1002345
:101A1000BB61354B5B6C344A43F010035364324B6B
:101A20005B6C03F01003BB61BB6900237B612E4B31
:101A30001B6B2D4A43F0010313632B4B1B6B03F00D
:101A400001037B617B694FF40073FB6112233B62EE
:101A500000237B620223BB620723FB6207F11C03A6
:101A60001946224801F030F938E07B681B68204AAB
:101A7000934233D100233B611B4B1B6C1A4A43F446
:101A800000331364184B1B6C03F400333B613B6958
:101A90000023FB60144B1B6B134A43F001031363D9
:101AA000114B1B6B03F00103FB60FB680C23FB6114
:101AB00002233B6200237B620323BB620723FB629A
:101AC00007F11C031946094801F0FEF80022002125
:101AD000262001F030F8262001F049F800BF303709
:101AE000BD4680BD001001400038024000000240A9
:101AF0000044004080B400AFFEE780B400AFFEE7D2
:101B000080B400AFFEE780B400AFFEE780B400AF62
:101B1000FEE780B400AF00BFBD465DF8047B7047B0
:101B200080B400AF00BFBD465DF8047B704780B451
:101B300000AF00BFBD465DF8047B704780B500AFC5
:101B400000F066F900BF80BD80B500AF024800F02C
:101B5000FBFC00BF80BD00BF9000002080B500AF3F
:101B6000024800F0F1FC00BF80BD00BF90000020E3
:101B700080B500AF402001F06DFA802001F06AFAD4
:101B800000BF80BD80B500AF024802F021FA00BF5F
:101B900080BD00BFE000002080B500AF024803F028
:101BA00057FA00BF80BD00BF6C01002080B500AFB8
:101BB0004FF4005001F04EFA00BF80BD80B500AF79
:101BC000024800F0C1FC00BF80BD00BFB80000208B
:101BD00080B500AF024800F0B7FC00BF80BD00BF79
:101BE000B800002080B586B000AFF860B9607A60B8
:101BF00000237B610AE0AFF300800146BB685A1CFA
:101C0000BA60CAB21A707B6901337B617A697B68FA
:101C10009A42F0DB7B6818461837BD4680BD80B419
:101C200083B000AF78604FF0FF3318460C37BD46E5
:101C30005DF8047B704780B483B000AF7860396092
:101C40003B684FF400525A60002318460C37BD46DB
:101C50005DF8047B704780B483B000AF78600123E7
:101C600018460C37BD465DF8047B704780B485B0DC
:101C700000AFF860B9607A60002318461437BD469B
:101C80005DF8047B7047000080B586B000AF7860D7
:101C9000144A154BD31A7B617B693B61134B1B685C
:101CA000002B02D1114B124A1A60104B1A687B6844
:101CB00013443A699A4207D204F0DEFC03460C2230
:101CC0001A604FF0FF3309E0084B1B68FB60074BBD
:101CD0001A687B681344054A1360FB681846183776
:101CE000BD4680BD00000220000400002007002047
:101CF0004009002080B400AF064BD3F88830054A75
:101D000043F47003C2F8883000BFBD465DF8047B21
:101D1000704700BF00ED00E0DFF834D00D480E49F9
:101D20000E4A002302E0D458C4500433C4188C4235
:101D3000F9D30B4A0B4C002301E013600432A2429A
:101D4000FBD3FFF7D7FF04F09DFCFFF74FF8704778
:101D50000000022000000020740000201080000815
:101D6000740000203C090020FEE7000080B500AFB1
:101D70000E4B1B680D4A43F4007313600B4B1B683A
:101D80000A4A43F480631360084B1B68074A43F414
:101D900080731360032000F0C3FE002000F008F8F9
:101DA000FFF702FD0023184680BD00BF003C024043
:101DB00080B582B000AF7860124B1A68124B1B7866
:101DC00019464FF47A73B3FBF1F3B2FBF3F3184601
:101DD00000F0DBFE0346002B01D001230EE07B6800
:101DE0000F2B0AD8002279684FF0FF3000F0A3FED5
:101DF000064A7B681360002300E001231846083779
:101E0000BD4680BD040000200C000020080000201A
:101E100080B400AF064B1B781A46064B1B68134470
:101E2000044A136000BFBD465DF8047B704700BFE5
:101E30000C0000202407002080B400AF034B1B6877
:101E40001846BD465DF8047B704700BF240700209C
:101E500080B584B000AF7860FFF7EEFFB8607B68B4
:101E6000FB60FB68B3F1FF3F05D00A4B1B781A46B5
:101E7000FB681344FB6000BFFFF7DEFF0246BB6850
:101E8000D31AFA689A42F7D800BF00BF1037BD4690
:101E900080BD00BF0C00002080B584B000AF78602A
:101EA0007B68002B01D10123EDE07B6893F82030A3
:101EB000DBB2002B02D17868FFF79EFC7B681B68C1
:101EC0001A687B681B6842F001021A60FFF7B4FFD2
:101ED000F86012E0FFF7B0FF0246FB68D31A0A2B46
:101EE0000BD97B685B6A43F400327B685A627B687B
:101EF000052283F820200123C5E07B681B685B680E
:101F000003F00103002BE5D07B681B681A687B682F
:101F10001B6822F002021A60FFF78EFFF86012E0E1
:101F2000FFF78AFF0246FB68D31A0A2B0BD97B689E
:101F30005B6A43F400327B685A627B68052283F84F
:101F4000202001239FE07B681B685B6803F002038D
:101F5000002BE5D17B681B7E012B08D17B681B68B9
:101F60001A687B681B6842F080021A6007E07B6891
:101F70001B681A687B681B6822F080021A607B6805
:101F80005B7E012B08D17B681B681A687B681B6825
:101F900042F040021A6007E07B681B681A687B68A1
:101FA0001B6822F040021A607B689B7E012B08D1DF
:101FB0007B681B681A687B681B6842F020021A6005
:101FC00007E07B681B681A687B681B6822F02002A8
:101FD0001A607B68DB7E012B08D17B681B681A685E
:101FE0007B681B6822F010021A6007E07B681B68A0
:101FF0001A687B681B6842F010021A607B681B7FBE
:10200000012B08D17B681B681A687B681B6842F04B
:1020100008021A6007E07B681B681A687B681B6807
:1020200022F008021A607B685B7F012B08D17B6875
:102030001B681A687B681B6842F004021A6007E09C
:102040007B681B681A687B681B6822F004021A60B0
:102050007B689A687B68DB681A437B681B691A4354
:102060007B685B6942EA03017B685B685A1E7B6898
:102070001B680A43DA617B6800225A627B6801228E
:1020800083F82020002318461037BD4680BD00008D
:1020900080B487B000AF786039607B681B687B6173
:1020A0007B6893F82030FB74FB7C012B03D0FB7C16
:1020B000022B40F0BE80654B7B617B69D3F8003218
:1020C00043F001027B69C3F800227B69D3F8003238
:1020D00023F47C527B69C3F800227B69D3F8002289
:1020E0003B685B6A1B021A437B69C3F800223B68AA
:1020F0005B6903F01F03012202FA03F3FB607B69B3
:10210000D3F81C22FB68DB431A407B69C3F81C220E
:102110003B68DB69002B23D17B69D3F80C22FB6879
:10212000DB431A407B69C3F80C223B68DB68190467
:102130003B685B689BB23A68526919437B694832D5
:1021400043F832103B689B6819043B681B689AB2DD
:102150003B685B690A4379694833DB000B445A608A
:102160003B68DB69012B22D17B69D3F80C22FB6829
:102170001A437B69C3F80C223B681B6819043B684F
:102180005B689BB23A68526919437B69483243F8ED
:1021900032103B689B6819043B68DB689AB23B6865
:1021A0005B690A4379694833DB000B445A603B683A
:1021B0009B69002B09D17B69D3F80422FB68DB43C0
:1021C0001A407B69C3F8042207E07B69D3F8042234
:1021D000FB681A437B69C3F804223B681B69002B28
:1021E00009D17B69D3F81422FB68DB431A407B6971
:1021F000C3F8142207E07B69D3F81422FB681A4362
:102200007B69C3F814223B681B6A012B07D17B69E9
:10221000D3F81C22FB681A437B69C3F81C227B6934
:10222000D3F8003223F001027B69C3F800220023B7
:1022300006E07B685B6A43F480227B685A62012374
:1022400018461C37BD465DF8047B704700640040AB
:1022500080B584B000AF78607B6893F82030DBB243
:10226000012B2ED17B68022283F820207B681B681B
:102270001A687B681B6822F001021A60FFF7DCFD18
:10228000F86012E0FFF7D8FD0246FB68D31A0A2B6C
:102290000BD97B685B6A43F400327B685A627B68C7
:1022A000052283F82020012312E07B681B685B680D
:1022B00003F00103002BE5D17B6800225A62002362
:1022C00006E07B685B6A43F400227B685A62012364
:1022D00018461037BD4680BD80B487B000AFF860A7
:1022E000B9607A603B60FB6893F82030FB75FB7D3A
:1022F000012B03D0FB7D022B40F0F380BB68002B49
:102300000ED1FB681B68DB6803F00303002B16D1BA
:10231000FB685B6A43F40012FB685A620123E7E042
:10232000FB681B681B6903F00303002B07D1FB68E4
:102330005B6A43F40012FB685A620123D8E0FB6831
:102340001A68BB681B331B0113441B6803F00402AB
:102350007B689A607B689B68002B0CD1FB681A68CD
:10236000BB681B331B0113441B685B0DC3F30A02DC
:102370007B681A600BE0FB681A68BB681B331B01A3
:1023800013441B68DB0823F060427B685A60FB68DB
:102390001A68BB681B331B0113441B6803F002025D
:1023A0007B68DA60FB681A68BB681B331B01134447
:1023B00004331B6803F00F027B681A61FB681A681C
:1023C000BB681B331B01134404331B681B0ADAB2BE
:1023D0007B689A61FB681A68BB681B331B01134456
:1023E00004331B681B0C9AB27B685A61FB681A683D
:1023F000BB681B01134403F5DC731B68DAB23B684E
:102400001A70FB681A68BB681B01134403F5DC7380
:102410001B681A0A3B680133D2B21A70FB681A684B
:10242000BB681B01134403F5DC731B681A0C3B6883
:102430000233D2B21A70FB681A68BB681B011344DE
:1024400003F5DC731B681A0E3B680333D2B21A70B3
:10245000FB681A68BB681B01134403F5DE731A6836
:102460003B680433D2B21A70FB681A68BB681B0160
:10247000134403F5DE731B681A0A3B680533D2B2B6
:102480001A70FB681A68BB681B01134403F5DE73FE
:102490001B681A0C3B680633D2B21A70FB681A68C4
:1024A000BB681B01134403F5DE731B681A0E3B68FF
:1024B0000733D2B21A70BB68002B08D1FB681B68C7
:1024C000DA68FB681B6842F02002DA6007E0FB680C
:1024D0001B681A69FB681B6842F020021A6100231E
:1024E00006E0FB685B6A43F48022FB685A620123C2
:1024F00018461C37BD465DF8047B704780B485B034
:1025000000AF786039607B6893F82030FB73FB7B09
:10251000012B02D0FB7B022B09D17B681B68596918
:102520007B681B683A680A435A61002306E07B68AF
:102530005B6A43F480227B685A6201231846143791
:10254000BD465DF8047B704780B58AB000AF786007
:1025500000237B627B681B685B693B627B681B684E
:102560005B68FB617B681B689B68BB617B681B6861
:10257000DB687B617B681B681B693B617B681B6850
:102580009B69FB603B6A03F00103002B7CD0BB69B5
:1025900003F00103002B23D07B681B6801229A60A3
:1025A000BB6903F00203002B03D07868FFF7B0F893
:1025B00016E0BB6903F00403002B04D07B6A43F4EC
:1025C00000637B620CE0BB6903F00803002B04D0BE
:1025D0007B6A43F480537B6202E0786800F07FF905
:1025E000BB6903F48073002B24D07B681B684FF415
:1025F00080729A60BB6903F40073002B03D0786883
:1026000000F059F916E0BB6903F48063002B04D095
:102610007B6A43F400537B620CE0BB6903F4006304
:10262000002B04D07B6A43F480437B6202E078682D
:1026300000F05FF9BB6903F48033002B24D07B6882
:102640001B684FF480329A60BB6903F40033002B9F
:1026500003D0786800F039F916E0BB6903F48023F1
:10266000002B04D07B6A43F400437B620CE0BB691F
:1026700003F40023002B04D07B6A43F480337B6295
:1026800002E0786800F03FF93B6A03F00803002B92
:102690000CD07B6903F01003002B07D07B6A43F456
:1026A00000737B627B681B681022DA603B6A03F070
:1026B0000403002B0BD07B6903F00803002B06D02A
:1026C0007B681B680822DA60786800F026F93B6AAC
:1026D00003F00203002B09D07B681B68DB6803F062
:1026E0000303002B02D07868FFF724F83B6A03F05D
:1026F0004003002B0CD03B6903F01003002B07D0E4
:102700007B6A43F480637B627B681B6810221A61DA
:102710003B6A03F02003002B0BD03B6903F0080356
:10272000002B06D07B681B6808221A61786800F0CD
:10273000FEF83B6A03F01003002B09D07B681B688E
:102740001B6903F00303002B02D07868FFF70CF835
:102750003B6A03F40033002B0BD0FB6903F010033A
:10276000002B06D07B681B6810225A60786800F046
:10277000E8F83B6A03F48033002B0BD0FB6903F0CD
:102780000803002B06D07B681B6808225A60786813
:1027900000F0E1F83B6A03F40043002B7BD0FB69B7
:1027A00003F00403002B72D03B6A03F48073002B08
:1027B00008D0FB6803F00103002B03D07B6A43F0D1
:1027C00001037B623B6A03F40073002B08D0FB68B3
:1027D00003F00203002B03D07B6A43F002037B6209
:1027E0003B6A03F48063002B08D0FB6803F004030A
:1027F000002B03D07B6A43F004037B623B6A03F443
:102800000063002B43D0FB6803F07003002B3ED025
:10281000FB6803F07003602B2BD0602B2ED8502B5D
:1028200022D0502B2AD8402B19D0402B26D8302B21
:1028300010D0302B22D8102B02D0202B05D01DE039
:102840007B6A43F008037B6219E07B6A43F0100364
:102850007B6214E07B6A43F020037B620FE07B6ABB
:1028600043F040037B620AE07B6A43F080037B62B3
:1028700005E07B6A43F480737B6200E000BF7B6805
:102880001B689A697B681B6822F070029A617B68FA
:102890001B6804225A607B6A002B08D07B685A6A46
:1028A0007B6A1A437B685A62786800F05EF800BF62
:1028B0002837BD4680BD80B483B000AF786000BFCC
:1028C0000C37BD465DF8047B704780B483B000AF21
:1028D000786000BF0C37BD465DF8047B704780B45C
:1028E00083B000AF786000BF0C37BD465DF8047B55
:1028F000704780B483B000AF786000BF0C37BD462E
:102900005DF8047B704780B483B000AF786000BF8F
:102910000C37BD465DF8047B704780B483B000AFD0
:10292000786000BF0C37BD465DF8047B704780B40B
:1029300083B000AF786000BF0C37BD465DF8047B04
:10294000704780B483B000AF786000BF0C37BD46DD
:102950005DF8047B704780B483B000AF786000BF3F
:102960000C37BD465DF8047B704780B483B000AF80
:10297000786000BF0C37BD465DF8047B70470000EF
:1029800080B485B000AF78607B6803F00703FB601C
:102990000C4BDB68BB60BA684FF6FF031340BB60AB
:1029A000FB681A02BB68134343F0BF6343F4003370
:1029B000BB60044ABB68D36000BF1437BD465DF8F6
:1029C000047B704700ED00E080B400AF044BDB688F
:1029D0001B0A03F007031846BD465DF8047B7047E9
:1029E00000ED00E080B483B000AF0346FB7197F9BF
:1029F0000730002B0BDBFB7903F01F02074997F927
:102A000007305B09012000FA02F241F8232000BFE1
:102A10000C37BD465DF8047B704700BF00E100E065
:102A200080B483B000AF03463960FB7197F907307B
:102A3000002B0ADB3B68DAB20C4997F90730120128
:102A4000D2B20B4483F800230AE03B68DAB20849AB
:102A5000FB7903F00F03043B1201D2B20B441A7648
:102A600000BF0C37BD465DF8047B704700E100E015
:102A700000ED00E080B489B000AFF860B9607A6022
:102A8000FB6803F00703FB61FB69C3F10703042B39
:102A900028BF0423BB61FB690433062B02D9FB6901
:102AA000033B00E000237B614FF0FF32BB6902FA79
:102AB00003F3DA43BB681A407B699A404FF0FF3159
:102AC0007B6901FA03F3D9437B680B401343184633
:102AD0002437BD465DF8047B7047000080B582B0A6
:102AE00000AF78607B68013BB3F1807F01D30123A5
:102AF0000FE00A4A7B68013B53600F214FF0FF3023
:102B0000FFF78EFF054B00229A60044B07221A60E4
:102B1000002318460837BD4680BD00BF10E000E026
:102B200080B582B000AF78607868FFF729FF00BFFA
:102B30000837BD4680BD80B586B000AF0346B9609A
:102B40007A60FB7300237B61FFF73EFF78617A6850
:102B5000B9687869FFF78EFF024697F90F30114682
:102B60001846FFF75DFF00BF1837BD4680BD80B532
:102B700082B000AF0346FB7197F907301846FFF7A4
:102B800031FF00BF0837BD4680BD80B582B000AFC1
:102B900078607868FFF7A2FF034618460837BD46FD
:102BA00080BD80B584B000AF78607B689B6DFB60B2
:102BB000FFF742F9B8607B6893F83530DBB2022B3F
:102BC00008D07B6880225A657B68002283F8342015
:102BD000012352E07B681B681A687B681B6822F03F
:102BE00016021A607B681B685A697B681B6822F0B2
:102BF00080025A617B681B6C002B03D17B689B6C45
:102C0000002B07D07B681B681A687B681B6822F062
:102C100008021A607B681B681A687B681B6822F0D0
:102C200001021A6013E0FFF707F90246BB68D31AE6
:102C3000052B0CD97B6820225A657B68032283F818
:102C400035207B68002283F83420032315E07B685D
:102C50001B681B6803F00103002BE4D17B68DB6D6C
:102C60003F229A40FB689A607B68012283F83520F6
:102C70007B68002283F83420002318461037BD46B5
:102C800080BD80B483B000AF78607B6893F8353046
:102C9000DBB2022B04D07B6880225A6501230CE052
:102CA0007B68052283F835207B681B681A687B687F
:102CB0001B6822F001021A60002318460C37BD463B
:102CC0005DF8047B7047000080B489B000AF786085
:102CD000396000237B6100233B610023BB6100233B
:102CE000FB6165E10122FB6902FA03F37B613B684A
:102CF0001B687A6913403B613A697B699A4240F0EC
:102D000054813B685B6803F00303012B05D03B68EB
:102D10005B6803F00303022B30D17B689B68BB61C7
:102D2000FB695B00032202FA03F3DB43BA69134039
:102D3000BB613B68DA68FB695B0002FA03F3BA69BE
:102D40001343BB617B68BA699A607B685B68BB614F
:102D50000122FB6902FA03F3DB43BA691340BB614A
:102D60003B685B681B0903F00102FB6902FA03F38D
:102D7000BA691343BB617B68BA695A603B685B6898
:102D800003F00303032B17D07B68DB68BB61FB698F
:102D90005B00032202FA03F3DB43BA691340BB6111
:102DA0003B689A68FB695B0002FA03F3BA69134354
:102DB000BB617B68BA69DA603B685B6803F0030358
:102DC000022B23D1FB69DA087B68083253F82230E2
:102DD000BB61FB6903F007039B000F2202FA03F3B8
:102DE000DB43BA691340BB613B681A69FB6903F0B6
:102DF00007039B0002FA03F3BA691343BB61FB6943
:102E0000DA087B680832B96943F822107B681B68CE
:102E1000BB61FB695B00032202FA03F3DB43BA697F
:102E20001340BB613B685B6803F00302FB695B0016
:102E300002FA03F3BA691343BB617B68BA691A608B
:102E40003B685B6803F44033002B00F0AE80002346
:102E5000FB605D4B5B6C5C4A43F4804353645A4BAC
:102E60005B6C03F48043FB60FB68584AFB699B087A
:102E7000023352F82330BB61FB6903F003039B006C
:102E80000F2202FA03F3DB43BA691340BB617B688C
:102E90004F4A934225D07B684E4A93421FD07B68AD
:102EA0004D4A934219D07B684C4A934213D07B68B9
:102EB0004B4A93420DD07B684A4A934207D07B68C5
:102EC000494A934201D106230CE007230AE0052377
:102ED00008E0042306E0032304E0022302E00123C8
:102EE00000E00023FA6902F0030292009340BA69FD
:102EF0001343BB613549FB699B080233BA6941F84A
:102F000023203A4B9B68BB613B69DB43BA691340A2
:102F1000BB613B685B6803F48013002B03D0BA6984
:102F20003B691343BB61314ABB6993602F4BDB683C
:102F3000BB613B69DB43BA691340BB613B685B68BB
:102F400003F40013002B03D0BA693B691343BB6140
:102F5000264ABB69D360254B5B68BB613B69DB4399
:102F6000BA691340BB613B685B6803F40033002B14
:102F700003D0BA693B691343BB611C4ABB69536008
:102F80001A4B1B68BB613B69DB43BA691340BB61E9
:102F90003B685B6803F48033002B03D0BA693B695C
:102FA0001343BB61114ABB691360FB690133FB61C9
:102FB000FB690F2B7FF696AE00BF00BF2437BD46DE
:102FC0005DF8047B704700BF0038024000380140C4
:102FD000000002400004024000080240000C0240D1
:102FE000001002400014024000180240003C014062
:102FF00080B485B000AF78600B467B807B681A692F
:103000007B881340002B02D00123FB7301E00023D7
:10301000FB73FB7B18461437BD465DF8047B704795
:1030200080B483B000AF78600B467B8013467B7022
:103030007B78002B03D07A887B689A6103E07B88D9
:103040001A047B689A6100BF0C37BD465DF8047BAB
:103050007047000080B582B000AF0346FB80084B8C
:103060005A69FB881340002B06D0054AFB88536140
:10307000FB881846FDF710FB00BF0837BD4680BD32
:10308000003C014080B584B000AF786039607B6857
:10309000002B01D10123CCE0684B1B6803F00F0328
:1030A0003A689A420CD9654B3A68D2B21A70634BAF
:1030B0001B6803F00F033A689A4201D00123B8E07D
:1030C0007B681B6803F00203002B20D07B681B6821
:1030D00003F00403002B05D0594B9B68584A43F476
:1030E000E05393607B681B6803F00803002B05D056
:1030F000534B9B68524A43F460439360504B9B6828
:1031000023F0F0027B689B684D4913438B607B681A
:103110001B6803F00103002B44D07B685B68012B24
:1031200007D1474B1B6803F40033002B19D101234F
:103130007FE07B685B68022B03D07B685B68032BB6
:1031400007D13F4B1B6803F00073002B09D101230B
:103150006FE03B4B1B6803F00203002B01D10123FE
:1031600067E0374B9B6823F003027B685B68344958
:1031700013438B60FEF760FEF8600AE0FEF75CFE2A
:103180000246FB68D31A41F28832934201D90323E5
:103190004FE02B4B9B6803F00C027B685B689B0045
:1031A0009A42EBD1254B1B6803F00F033A689A4211
:1031B0000CD2224B3A68D2B21A70204B1B6803F033
:1031C0000F033A689A4201D0012332E07B681B6802
:1031D00003F00403002B08D0194B9B6823F4E05242
:1031E0007B68DB68164913438B607B681B6803F0C0
:1031F0000803002B09D0124B9B6823F460427B68C4
:103200001B69DB000E4913438B6000F055F8024642
:103210000B4B9B681B0903F00F030A49CB5C22FA96
:1032200003F3094A1360094B1B681846FEF7C0FDFB
:10323000002318461037BD4680BD00BF003C024049
:1032400000380240D07E0008040000200800002062
:1032500080B400AF034B1B681846BD465DF8047B85
:10326000704700BF0400002080B500AFFFF7F0FFFB
:103270000246054B9B689B0A03F007030349CB5C9E
:1032800022FA03F3184680BD00380240E07E0008B1
:1032900080B500AFFFF7DCFF0246054B9B685B0B78
:1032A00003F007030349CB5C22FA03F3184680BD01
:1032B00000380240E07E00082DE9B04FAEB000AF0C
:1032C0000023C7F8AC300023C7F8B4300023C7F898
:1032D000A8300023C7F8A4300023C7F8B030CB4B88
:1032E0009B6803F00C030C2B00F2068201A252F83B
:1032F00023F000BF29330008F9360008F93600082A
:10330000F936000831330008F9360008F9360008AC
:10331000F936000839330008F9360008F936000894
:10332000F936000829350008B94BC7F8B030E7E195
:10333000B84BC7F8B030E3E1B44B5B6803F03F0330
:10334000C7F8AC30B14B5B6803F48003002B71D03D
:10335000AE4B5B689B090022C7F89830C7F89C20E9
:10336000D7F89830C3F30803C7F890300023C7F8A4
:103370009430D7E9244522462B464FF000004FF009
:103380000001590141EAD261500102460B46214633
:10339000511A3964294663EB01037B644FF0000244
:1033A0004FF00003D7E9108949468B01414643EAB3
:1033B000916341468A014146511AB963494663EB1C
:1033C0000103FB634FF000024FF00003D7E90E89C1
:1033D0004946CB00414643EA51734146CA00104674
:1033E0001946034622469B183B632B460A4642EB8E
:1033F00003037B634FF000024FF00003D7E90C4555
:1034000029464B02214643EAD15321464A0210463F
:103410001946D7F8AC300022C7F88830C7F88C209E
:10342000D7E92223FCF744FF02460B461346C7F8B0
:10343000B43067E0754B5B689B090022C7F88030A9
:10344000C7F88420D7F88030C3F30803BB67002394
:10345000FB67D7E91E4522462B464FF000004FF090
:103460000001590141EAD261500102460B46214652
:10347000511AB962294663EB0103FB624FF0000267
:103480004FF00003D7E90A8949468B01414643EAD8
:10349000916341468A014146B2EB010A494663EB1A
:1034A000010B4FF000024FF000034FEACB0343EA59
:1034B0005A734FEACA0292469B4623461AEB03030D
:1034C0003B622B464BEB03037B624FF000024FF055
:1034D0000003D7E9084529468B02214643EA915368
:1034E00021468A0210461946D7F8AC3000223B67C5
:1034F0007A67D7E91C23FCF7DBFE02460B4613462E
:10350000C7F8B430414B5B681B0C03F00303013375
:103510005B00C7F8A830D7F8B420D7F8A830B2FBC2
:10352000F3F3C7F8B030EBE0384B5B6803F03F03D0
:10353000C7F8AC30354B5B6803F48003002B6BD0CD
:10354000324B5B689B090022BB66FA66BB6EC3F315
:1035500008033B6600237B66D7E9184522462B46C5
:103560004FF000004FF00001590141EAD2615001D3
:1035700002460B462146511AB961294663EB010305
:10358000FB614FF000024FF00003D7E906AB59464C
:103590008B01514643EA916351468A015146B2EB91
:1035A0000108594663EB01094FF000024FF0000398
:1035B0004FEAC90343EA58734FEAC8029046994656
:1035C000234618EB03033B612B4649EB03037B6166
:1035D0004FF000024FF00003D7E9044529464B02A3
:1035E000214643EAD15321464A0210461946D7F8EC
:1035F000AC300022BB65FA65D7E91623FCF758FE0C
:1036000002460B461346C7F8B43065E00038024066
:103610000024F40000127A003D4B5B689B090022F5
:1036200018461146C0F308033B6500237B65D7E9C4
:10363000148942464B464FF000004FF000015901FB
:1036400041EAD261500102460B464146511AB96027
:10365000494663EB0103FB604FF000024FF00003AB
:10366000D7E902AB59468B01514643EA9163514673
:103670008A015146541A594663EB01054FF0000286
:103680004FF00003EB0043EA5473E20014461D467A
:103690004346E3183B604B4645EB03037B604FF02A
:1036A00000024FF00003D7E9004529468B0221466E
:1036B00043EA915321468A0210461946D7F8AC30A6
:1036C0000022BB64FA64D7E91223FCF7F1FD02463D
:1036D0000B461346C7F8B4300D4B5B681B0F03F065
:1036E0000703C7F8A430D7F8B420D7F8A430B2FB4A
:1036F000F3F3C7F8B03003E0064BC7F8B03000BFB3
:10370000D7F8B0301846B837BD46BDE8B08F00BF17
:10371000003802400024F40080B586B000AF786025
:103720007B68002B01D101238DE27B681B6803F0CD
:103730000103002B00F08380944B9B6803F00C0383
:10374000042B19D0914B9B6803F00C03082B06D176
:103750008E4B5B6803F48003B3F5800F0CD08B4B6A
:103760009B6803F00C030C2B12D1884B5B6803F4AD
:103770008003B3F5800F0BD1844B1B6803F4003337
:10378000002B5BD07B685B68002B57D101235AE28A
:103790007B685B68B3F5803F06D17C4B1B687B4A36
:1037A00043F4803313601DE07B685B68B3F5A02FA2
:1037B0000CD1764B1B68754A43F480231360734B1E
:1037C0001B68724A43F4803313600BE06F4B1B6835
:1037D0006E4A23F4803313606C4B1B686B4A23F4EE
:1037E000802313607B685B68002B13D0FEF724FBFB
:1037F000386108E0FEF720FB02463B69D31A642BD0
:1038000001D903231FE2614B1B6803F40033002B33
:10381000F0D014E0FEF710FB386108E0FEF70CFB77
:1038200002463B69D31A642B01D903230BE2574BA1
:103830001B6803F40033002BF0D100E000BF7B686D
:103840001B6803F00203002B6FD0504B9B6803F002
:103850000C03002B17D04D4B9B6803F00C03082B77
:1038600005D14A4B5B6803F48003002B0BD0474B18
:103870009B6803F00C030C2B1CD1444B5B6803F4D6
:103880008003002B16D1414B1B6803F00203002B71
:1038900005D07B68DB68012B01D00123D3E13B4BD2
:1038A0001B6823F0F8027B681B69DB003749134370
:1038B0000B603AE07B68DB68002B20D0344B0122A0
:1038C0001A60FEF7B9FA386108E0FEF7B5FA024669
:1038D0003B69D31A022B01D90323B4E12B4B1B689C
:1038E00003F00203002BF0D0284B1B6823F0F802F2
:1038F0007B681B69DB00254913430B6015E0244BF3
:1039000000221A60FEF798FA386108E0FEF794FA90
:1039100002463B69D31A022B01D9032393E11B4BC7
:103920001B6803F00203002BF0D17B681B6803F0D7
:103930000803002B36D07B685B69002B16D0154B33
:1039400001221A60FEF778FA386108E0FEF774FA8F
:1039500002463B69D31A022B01D9032373E10B4BB7
:103960005B6F03F00203002BF0D01BE0094B002239
:103970001A60FEF761FA38610EE0FEF75DFA024662
:103980003B69D31A022B07D903235CE100380240BC
:1039900000004742800E47428A4B5B6F03F00203F0
:1039A000002BEAD17B681B6803F00403002B00F0B6
:1039B00097800023FB75834B1B6C03F08053002B17
:1039C0000FD10023BB607F4B1B6C7E4A43F08053BA
:1039D00013647C4B1B6C03F08053BB60BB680123FA
:1039E000FB75794B1B6803F48073002B18D1764B61
:1039F0001B68754A43F480731360FEF71DFA386143
:103A000008E0FEF719FA02463B69D31A022B01D9E6
:103A1000032318E16C4B1B6803F48073002BF0D078
:103A20007B689B68012B06D1664B1B6F654A43F090
:103A3000010313671CE07B689B68052B0CD1614B6D
:103A40001B6F604A43F0040313675E4B1B6F5D4AB4
:103A500043F0010313670BE05A4B1B6F594A23F0E5
:103A600001031367574B1B6F564A23F00403136778
:103A70007B689B68002B15D0FEF7DEF938610AE001
:103A8000FEF7DAF902463B69D31A41F288329342D3
:103A900001D90323D7E04B4B1B6F03F00203002B2C
:103AA000EED014E0FEF7C8F938610AE0FEF7C4F979
:103AB00002463B69D31A41F28832934201D903236B
:103AC000C1E0404B1B6F03F00203002BEED1FB7DE6
:103AD000012B05D13B4B1B6C3A4A23F080531364F6
:103AE0007B689B69002B00F0AD80364B9B6803F030
:103AF0000C03082B60D07B689B69022B45D1334BAC
:103B000000221A60FEF798F9386108E0FEF794F990
:103B100002463B69D31A022B01D9032393E0294BB8
:103B20001B6803F00073002BF0D17B68DA697B68B7
:103B30001B6A1A437B685B6A9B011A437B689B6A1A
:103B40005B08013B1B041A437B68DB6A1B061A43B4
:103B50007B681B6B1B071B4913434B601B4B0122EC
:103B60001A60FEF769F9386108E0FEF765F9024668
:103B70003B69D31A022B01D9032364E0114B1B6864
:103B800003F00073002BF0D05CE0104B00221A60B1
:103B9000FEF752F9386108E0FEF74EF902463B693C
:103BA000D31A022B01D903234DE0064B1B6803F007
:103BB0000073002BF0D145E07B689B69012B07D196
:103BC000012340E00038024000700040600047429E
:103BD0001F4B5B68FB607B689B69012B30D0FB68E7
:103BE00003F480027B68DB699A4229D1FB6803F009
:103BF0003F027B681B6A9A4222D1FA6847F6C0737B
:103C000013407A68526A9201934219D1FB6803F417
:103C100040327B689B6A5B08013B1B049A420FD1D0
:103C2000FB6803F070627B68DB6A1B069A4207D16F
:103C3000FB6803F0E0427B681B6B1B079A4201D0D4
:103C4000012300E0002318461837BD4680BD00BFA1
:103C50000038024080B582B000AF78607B68002BEE
:103C600001D1012341E07B6893F83D30DBB2002BAA
:103C700006D17B68002283F83C207868FDF78EFE31
:103C80007B68022283F83D207B681A687B680433D6
:103C90001946104600F0F0FB7B68012283F84620AD
:103CA0007B68012283F83E207B68012283F83F2055
:103CB0007B68012283F840207B68012283F8412041
:103CC0007B68012283F842207B68012283F843202D
:103CD0007B68012283F844207B68012283F8452019
:103CE0007B68012283F83D20002318460837BD4633
:103CF00080BD80B582B000AF78607B68002B01D1B9
:103D0000012341E07B6893F83D30DBB2002B06D104
:103D10007B68002283F83C20786800F039F87B68E3
:103D2000022283F83D207B681A687B6804331946B9
:103D3000104600F0A1FB7B68012283F846207B68D7
:103D4000012283F83E207B68012283F83F207B68B4
:103D5000012283F840207B68012283F841207B68A0
:103D6000012283F842207B68012283F843207B688C
:103D7000012283F844207B68012283F845207B6878
:103D8000012283F83D20002318460837BD4680BD38
:103D900080B483B000AF786000BF0C37BD465DF8DB
:103DA000047B704780B584B000AF78603960002331
:103DB000FB733B68002B09D17B6893F83E30DBB284
:103DC000012B14BF01230023DBB222E03B68042B4C
:103DD00009D17B6893F83F30DBB2012B14BF01237C
:103DE0000023DBB215E03B68082B09D17B6893F810
:103DF0004030DBB2012B14BF01230023DBB208E00B
:103E00007B6893F84130DBB2012B14BF0123002300
:103E1000DBB2002B01D00123C7E03B68002B04D1AB
:103E20007B68022283F83E2013E03B68042B04D118
:103E30007B68022283F83F200BE03B68082B04D10B
:103E40007B68022283F8402003E07B68022283F82B
:103E500041203B680C2B41D801A252F823F000BF4F
:103E6000953E0008DD3E0008DD3E0008DD3E00080E
:103E7000A73E0008DD3E0008DD3E0008DD3E0008EC
:103E8000B93E0008DD3E0008DD3E0008DD3E0008CA
:103E9000CB3E00087B681B68DA687B681B6842F0D1
:103EA0000202DA601DE07B681B68DA687B681B68C9
:103EB00042F00402DA6014E07B681B68DA687B6811
:103EC0001B6842F00802DA600BE07B681B68DA6866
:103ED0007B681B6842F01002DA6002E00123FB738A
:103EE00000BFFB7B002B5FD17B681B680122396818
:103EF000184600F0ABFD7B681B682E4A934204D045
:103F00007B681B682C4A934201D1012300E0002307
:103F1000002B07D07B681B685A6C7B681B6842F4D7
:103F200000425A647B681B68224A934222D07B6815
:103F30001B68B3F1804F1DD07B681B681F4A9342FA
:103F400018D07B681B681E4A934213D07B681B689D
:103F50001C4A93420ED07B681B68174A934209D0D3
:103F60007B681B68184A934204D07B681B68174A19
:103F7000934211D17B681B689B6803F00703BB6009
:103F8000BB68062B10D07B681B681A687B681B68AF
:103F900042F001021A6007E07B681B681A687B68C0
:103FA0001B6842F001021A60FB7B18461037BD46C1
:103FB00080BD00BF0000014000040140000400403B
:103FC00000080040000C0040004001400018004084
:103FD00080B582B000AF78607B681B681B6903F016
:103FE0000203022B22D17B681B68DB6803F002030B
:103FF000022B1BD17B681B686FF002021A617B6881
:1040000001221A777B681B689B6903F00303002B6E
:1040100003D0786800F011FA05E07868FCF7B8FC86
:10402000786800F014FA7B6800221A777B681B68B6
:104030001B6903F00403042B22D17B681B68DB6837
:1040400003F00403042B1BD17B681B686FF0040290
:104050001A617B6802221A777B681B689B6903F4EC
:104060004073002B03D0786800F0E7F905E078682A
:10407000FCF78EFC786800F0EAF97B6800221A777A
:104080007B681B681B6903F00803082B22D17B683F
:104090001B68DB6803F00803082B1BD17B681B68D7
:1040A0006FF008021A617B6804221A777B681B682C
:1040B000DB6903F00303002B03D0786800F0BDF93F
:1040C00005E07868FCF764FC786800F0C0F97B686C
:1040D00000221A777B681B681B6903F01003102B02
:1040E00022D17B681B68DB6803F01003102B1BD107
:1040F0007B681B686FF010021A617B6808221A77D0
:104100007B681B68DB6903F44073002B03D078687D
:1041100000F093F905E07868FCF73AFC786800F065
:1041200096F97B6800221A777B681B681B6903F08D
:104130000103012B0ED17B681B68DB6803F00103D0
:10414000012B07D17B681B686FF001021A61786848
:1041500000F069F97B681B681B6903F08003802B02
:104160000ED17B681B68DB6803F08003802B07D1CE
:104170007B681B686FF080021A61786800F012FD9E
:104180007B681B681B6903F04003402B0ED17B68E2
:104190001B68DB6803F04003402B07D17B681B687A
:1041A0006FF040021A61786800F05BF97B681B6869
:1041B0001B6903F02003202B0ED17B681B68DB6892
:1041C00003F02003202B07D17B681B686FF02002CF
:1041D0001A61786800F0DCFC00BF0837BD4680BD7E
:1041E00080B586B000AFF860B9607A600023FB75D7
:1041F000FB6893F83C30012B01D1022348E0FB68B7
:10420000012283F83C207B680C2B39D801A252F89C
:1042100023F000BF494200088142000881420008A3
:10422000814200085742000881420008814200088C
:10423000814200086542000881420008814200086E
:104240008142000873420008FB681B68B968184681
:1042500000F0B2F917E0FB681B68B968184600F077
:104260001BFA10E0FB681B68B968184600F08AFA70
:1042700009E0FB681B68B968184600F0F7FA02E02D
:104280000123FB7500BFFB68002283F83C20FB7D07
:1042900018461837BD4680BD80B584B000AF786041
:1042A00039600023FB737B6893F83C30012B01D10C
:1042B0000223B4E07B68012283F83C207B68022261
:1042C00083F83D207B681B689B68BB60BB6823F05C
:1042D0007703BB60BB6823F47F43BB607B681B68CC
:1042E000BA689A603B681B68B3F5005F3ED0B3F5CF
:1042F000005F00F28780B3F5805F00F08680B3F541
:10430000805F7FD8702B1AD0702B7BD8602B50D059
:10431000602B77D8502B3CD0502B73D8402B58D0E3
:10432000402B6FD8302B64D0302B6BD8202B60D033
:10433000202B67D8002B5CD0102B5AD062E07B6812
:1043400018683B6899683B685A683B68DB6800F00E
:104350005DFB7B681B689B68BB60BB6843F07703B1
:10436000BB607B681B68BA689A604FE07B6818681E
:104370003B6899683B685A683B68DB6800F046FB1D
:104380007B681B689A687B681B6842F480429A606D
:104390003CE07B6818683B6859683B68DB681A46F4
:1043A00000F0BAFA7B681B685021184600F013FB36
:1043B0002CE07B6818683B6859683B68DB681A46E4
:1043C00000F0D9FA7B681B686021184600F003FBF7
:1043D0001CE07B6818683B6859683B68DB681A46D4
:1043E00000F09AFA7B681B684021184600F0F3FA47
:1043F0000CE07B681A683B681B681946104600F0A1
:10440000EAFA03E00123FB7300E000BF7B680122AE
:1044100083F83D207B68002283F83C20FB7B184614
:104420001037BD4680BD80B483B000AF786000BF58
:104430000C37BD465DF8047B704780B483B000AF95
:10444000786000BF0C37BD465DF8047B704780B4D0
:1044500083B000AF786000BF0C37BD465DF8047BC9
:10446000704780B483B000AF786000BF0C37BD46A2
:104470005DF8047B7047000080B485B000AF7860C1
:1044800039607B681B68FB607B68404A934213D0AD
:104490007B68B3F1804F0FD07B683D4A93420BD0CD
:1044A0007B683C4A934207D07B683B4A934203D0E7
:1044B0007B683A4A934208D1FB6823F07003FB60A3
:1044C0003B685B68FA681343FB607B682F4A934242
:1044D0002BD07B68B3F1804F27D07B682C4A934266
:1044E00023D07B682B4A93421FD07B682A4A934291
:1044F0001BD07B68294A934217D07B68284A934295
:1045000013D07B68274A93420FD07B68264A934298
:104510000BD07B68254A934207D07B68244A93429C
:1045200003D07B68234A934208D1FB6823F440738D
:10453000FB603B68DB68FA681343FB60FB6823F0B1
:1045400080023B685B691343FB607B68FA681A6012
:104550003B689A687B68DA623B681A687B689A6293
:104560007B680A4A934203D07B680C4A934203D18A
:104570003B681A697B681A637B6801225A6100BF35
:104580001437BD465DF8047B704700BF0000014052
:104590000004004000080040000C004000040140FE
:1045A0000040014000440140004801400018004024
:1045B000001C00400020004080B487B000AF78604D
:1045C00039607B681B6A23F001027B681A627B6892
:1045D0001B6A7B617B685B683B617B689B69FB60F6
:1045E000FB6823F07003FB60FB6823F00303FB60B0
:1045F0003B681B68FA681343FB607B6923F0020386
:104600007B613B689B687A6913437B617B68204AC6
:10461000934203D07B681F4A93420CD17B6923F0FD
:1046200008037B613B68DB687A6913437B617B69C4
:1046300023F004037B617B68154A934203D07B68B7
:10464000144A934211D13B6923F480733B613B6967
:1046500023F400733B613B685B693A6913433B6138
:104660003B689B693A6913433B617B683A695A60CE
:104670007B68FA689A613B685A687B685A637B6812
:104680007A691A6200BF1C37BD465DF8047B70472B
:10469000000001400004014080B487B000AF7860A2
:1046A00039607B681B6A23F010027B681A627B68A2
:1046B0001B6A7B617B685B683B617B689B69FB6015
:1046C000FB6823F4E043FB60FB6823F44073FB606A
:1046D0003B681B681B02FA681343FB607B6923F08D
:1046E00020037B613B689B681B017A6913437B61F4
:1046F0007B68224A934203D07B68214A93420DD1C2
:104700007B6923F080037B613B68DB681B017A696E
:1047100013437B617B6923F040037B617B68174A0D
:10472000934203D07B68164A934213D13B6923F42A
:1047300080633B613B6923F400633B613B685B69D9
:104740009B003A6913433B613B689B699B003A6954
:1047500013433B617B683A695A607B68FA689A61E7
:104760003B685A687B689A637B687A691A6200BF03
:104770001C37BD465DF8047B704700BF0000014058
:104780000004014080B487B000AF786039607B6876
:104790001B6A23F480727B681A627B681B6A7B61E8
:1047A0007B685B683B617B68DB69FB60FB6823F0CF
:1047B0007003FB60FB6823F00303FB603B681B682E
:1047C000FA681343FB607B6923F400737B613B68E9
:1047D0009B681B027A6913437B617B68214A934281
:1047E00003D07B68204A93420DD17B6923F4006398
:1047F0007B613B68DB681B027A6913437B617B69E1
:1048000023F480637B617B68164A934203D07B6804
:10481000154A934213D13B6923F480533B613B69B2
:1048200023F400533B613B685B691B013A69134306
:104830003B613B689B691B013A6913433B617B68A1
:104840003A695A607B68FA68DA613B685A687B6843
:10485000DA637B687A691A6200BF1C37BD465DF86F
:10486000047B7047000001400004014080B487B021
:1048700000AF786039607B681B6A23F480527B68E4
:104880001A627B681B6A3B617B685B687B617B6843
:10489000DB69FB60FB6823F4E043FB60FB6823F407
:1048A0004073FB603B681B681B02FA681343FB60A4
:1048B0003B6923F400533B613B689B681B033A69E7
:1048C00013433B617B68124A934203D07B68114AD1
:1048D000934209D17B6923F480437B613B685B6928
:1048E0009B017A6913437B617B687A695A607B68B4
:1048F000FA68DA613B685A687B681A647B683A69CF
:104900001A6200BF1C37BD465DF8047B704700BFCC
:10491000000001400004014080B487B000AFF8609F
:10492000B9607A60FB681B6A7B61FB681B6A23F0D5
:104930000102FB681A62FB689B693B613B6923F0DB
:10494000F0033B617B681B013A6913433B617B6960
:1049500023F00A037B617A69BB6813437B61FB68C0
:104960003A699A61FB687A691A6200BF1C37BD46D2
:104970005DF8047B704780B487B000AFF860B96021
:104980007A60FB681B6A23F01002FB681A62FB68FE
:104990009B697B61FB681B6A3B617B6923F4704305
:1049A0007B617B681B037A6913437B613B6923F05E
:1049B000A0033B61BB681B013A6913433B61FB6881
:1049C0007A699A61FB683A691A6200BF1C37BD4672
:1049D0005DF8047B704780B485B000AF78603960C3
:1049E0007B689B68FB60FB6823F07003FB603A68A0
:1049F000FB68134343F00703FB607B68FA689A6027
:104A000000BF1437BD465DF8047B704780B487B0A3
:104A100000AFF860B9607A603B60FB689B687B61BF
:104A20007B6923F47F437B613B681A027B681A43EE
:104A3000BB6813437A6913437B61FB687A699A60A8
:104A400000BF1C37BD465DF8047B704780B487B05B
:104A500000AFF860B9607A60BB6803F01F03012201
:104A600002FA03F37B61FB681A6A7B69DB431A4035
:104A7000FB681A62FB681A6ABB6803F01F03796857
:104A800001FA03F31A43FB681A6200BF1C37BD46E4
:104A90005DF8047B7047000080B485B000AF78609B
:104AA00039607B6893F83C30012B01D102235AE036
:104AB0007B68012283F83C207B68022283F83D203A
:104AC0007B681B685B68FB607B681B689B68BB60DE
:104AD000FB6823F07003FB603B681B68FA681343B4
:104AE000FB607B681B68FA685A607B681B68214A18
:104AF000934222D07B681B68B3F1804F1DD07B6846
:104B00001B681D4A934218D07B681B681B4A93425E
:104B100013D07B681B681A4A93420ED07B681B68CF
:104B2000184A934209D07B681B68174A934204D005
:104B30007B681B68154A93420CD1BB6823F0800345
:104B4000BB603B685B68BA681343BB607B681B68EB
:104B5000BA689A607B68012283F83D207B68002256
:104B600083F83C20002318461437BD465DF8047BCB
:104B7000704700BF000001400004004000080040F2
:104B8000000C0040000401400040014000180040BB
:104B900080B483B000AF786000BF0C37BD465DF8CD
:104BA000047B704780B483B000AF786000BF0C37DF
:104BB000BD465DF8047B704780B582B000AF786079
:104BC0007B68002B01D101233FE07B6893F83D30E7
:104BD000DBB2002B06D17B68002283F83C2078688A
:104BE000FCF704FF7B68242283F83D207B681B6868
:104BF000DA687B681B6822F40052DA60786800F09B
:104C000083FF7B681B681A697B681B6822F49042EB
:104C10001A617B681B685A697B681B6822F02A024C
:104C20005A617B681B68DA687B681B6842F4005233
:104C3000DA607B6800221A647B68202283F83D20BA
:104C40007B68202283F83E20002318460837BD46A3
:104C500080BD80B582B000AF78607B68002B01D149
:104C6000012347E07B6893F83D30DBB2002B06D18F
:104C70007B68002283F83C207868FCF7B7FE7B68ED
:104C8000242283F83D207B681B68DA687B681B68F8
:104C900022F40052DA60786800F036FF7B681B6807
:104CA0001A697B681B6822F490421A617B681B6852
:104CB0005A697B681B6822F022025A617B681B6874
:104CC0005A697B681B6842F008025A617B681B685E
:104CD000DA687B681B6842F40052DA607B68002265
:104CE0001A647B68202283F83D207B68202283F8A9
:104CF0003E20002318460837BD4680BD80B58AB0E7
:104D000002AFF860B9603B601346FB8000237B6113
:104D1000FB6893F83D30DBB2202B7CD1BB68002BC5
:104D200002D0FB88002B01D1012375E0FB6893F8CA
:104D30003C30012B01D102236EE0FB68012283F895
:104D40003C20FB6800221A64FB68212283F83D2086
:104D5000FDF772F87861FB68FA889A84FB68FA8834
:104D6000DA84FB689B68B3F5805F08D1FB681B6938
:104D7000002B04D10023FB61BB68BB6103E0BB686F
:104D8000FB610023BB61FB68002283F83C202AE022
:104D90003B6800937B6900228021F86800F06EFC7C
:104DA0000346002B01D0032336E0FB69002B0BD117
:104DB000BB691B881A46FB681B68C2F308025A606D
:104DC000BB690233BB6107E0FB691A78FB681B68AB
:104DD0005A60FB690133FB61FB68DB8C9BB2013BD2
:104DE0009AB2FB68DA84FB68DB8C9BB2002BCFD1D4
:104DF0003B6800937B6900224021F86800F03EFC8C
:104E00000346002B01D0032306E0FB68202283F831
:104E10003D20002300E0022318462037BD4680BD18
:104E200080B58AB002AFF860B9603B601346FB8082
:104E300000237B61FB6893F83E30DBB2202B40F00F
:104E40008C80BB68002B02D0FB88002B01D1012392
:104E500084E0FB6893F83C30012B01D102237DE014
:104E6000FB68012283F83C20FB6800221A64FB687F
:104E7000222283F83E20FB6800221A63FCF7DCFF45
:104E80007861FB68FA889A85FB68FA88DA85FB689E
:104E90009B68B3F5805F08D1FB681B69002B04D1C8
:104EA0000023FB61BB68BB6103E0BB68FB610023BF
:104EB000BB61FB68002283F83C2043E03B68009321
:104EC0007B6900222021F86800F0D8FB0346002B04
:104ED00001D0032342E0FB69002B0CD1FB681B6867
:104EE0005B689BB2C3F308039AB2BB691A80BB69C3
:104EF0000233BB611FE0FB689B68B3F5805F07D09E
:104F0000FB689B68002B0AD1FB681B69002B06D14C
:104F1000FB681B685B68DAB2FB691A7008E0FB6823
:104F20001B685B68DBB203F07F03DAB2FB691A70BF
:104F3000FB690133FB61FB68DB8D9BB2013B9AB2DD
:104F4000FB68DA85FB68DB8D9BB2002BB6D1FB6872
:104F5000202283F83E20002300E002231846203759
:104F6000BD4680BD80B485B000AFF860B96013461F
:104F7000FB80FB6893F83D30DBB2202B30D1BB685F
:104F8000002B02D0FB88002B01D1012329E0FB6814
:104F900093F83C30012B01D1022322E0FB6801226F
:104FA00083F83C20FB68BA681A62FB68FA889A8426
:104FB000FB68FA88DA84FB6800221A64FB68212205
:104FC00083F83D20FB68002283F83C20FB681B68C7
:104FD000DA68FB681B6842F08002DA60002300E0B8
:104FE000022318461437BD465DF8047B704780B530
:104FF00084B000AFF860B9601346FB80FB6893F89B
:105000003E30DBB2202B1DD1BB68002B02D0FB88C9
:10501000002B01D1012316E0FB6893F83C30012BF3
:1050200001D102230FE0FB68012283F83C20FB68DA
:1050300000221A63FB881A46B968F86800F08CFBF6
:10504000034600E0022318461037BD4680BD00002D
:1050500080B5BAB000AF78607B681B681B68C7F882
:10506000E4307B681B68DB68C7F8E0307B681B684E
:105070005B69C7F8DC300023C7F8D8300023C7F8D5
:10508000D430D7F8E43003F00F03C7F8D830D7F89E
:10509000D830002B0FD1D7F8E43003F02003002BD9
:1050A00009D0D7F8E03003F02003002B03D0786854
:1050B00000F06FFC56E2D7F8D830002B00F0DE800D
:1050C000D7F8DC3003F00103002B06D1D7F8E0302D
:1050D00003F49073002B00F0D180D7F8E43003F094
:1050E0000103002B0BD0D7F8E03003F48073002BC2
:1050F00005D07B681B6C43F001027B681A64D7F80B
:10510000E43003F00403002B0BD0D7F8DC3003F0BD
:105110000103002B05D07B681B6C43F002027B6807
:105120001A64D7F8E43003F00203002B0BD0D7F851
:10513000DC3003F00103002B05D07B681B6C43F0CF
:1051400004027B681A64D7F8E43003F00803002BEC
:1051500011D0D7F8E03003F02003002B05D1D7F8A9
:10516000DC3003F00103002B05D07B681B6C43F09F
:1051700008027B681A647B681B6C002B00F0ED81D1
:10518000D7F8E43003F02003002B08D0D7F8E03044
:1051900003F02003002B02D0786800F0FAFB7B6854
:1051A0001B685B6903F04003402B0CBF0123002305
:1051B000DBB2C7F8D4307B681B6C03F00803002B0C
:1051C00003D1D7F8D430002B4FD0786800F002FB21
:1051D0007B681B685B6903F04003402B41D17B680F
:1051E0001B681433C7F89C30D7F89C3053E8003F55
:1051F000C7F89830D7F8983023F04003C7F8D0307C
:105200007B681B681433D7F8D020C7F8A820C7F8EC
:10521000A430D7F8A410D7F8A82041E80023C7F895
:10522000A030D7F8A030002BD9D17B689B6B002B26
:1052300013D07B689B6B7D4A1A657B689B6B184615
:10524000FDF71FFD0346002B16D07B689B6B1B6D83
:105250007A68926B104698470EE0786800F090F9F3
:105260000AE0786800F08CF906E0786800F088F9C8
:105270007B6800221A6470E100BF6EE17B681B6BE3
:10528000012B40F04A81D7F8E43003F01003002BE3
:1052900000F04381D7F8E03003F01003002B00F05A
:1052A0003C810023BB607B681B681B68BB607B681C
:1052B0001B685B68BB60BB687B681B685B6903F04D
:1052C0004003402B40F0B4807B689B6B1B685B689D
:1052D000A7F8BE30B7F8BE30002B00F040817B68E5
:1052E0009B8DB7F8BE209A4280F039817B68B7F871
:1052F000BE20DA857B689B6BDB69B3F5807F00F0AD
:1053000088807B681B680C33C7F88830D7F88830F2
:1053100053E8003FC7F88430D7F8843023F4807313
:10532000C7F8B8307B681B680C33D7F8B820C7F8CB
:105330009420C7F89030D7F89010D7F8942041E81F
:105340000023C7F88C30D7F88C30002BD9D17B687C
:105350001B6814337B677B6F53E8003F3B673B6FF1
:1053600023F00103C7F8B4307B681B681433D7F807
:10537000B420C7F88020FB67F96FD7F8802041E898
:105380000023BB67BB6F002BE1D17B681B68143324
:105390003B663B6E53E8003FFB65FB6D23F040032B
:1053A000C7F8B0307B681B681433D7F8B020FA66B2
:1053B000BB66B96EFA6E41E800237B667B6E002BFC
:1053C000E3D17B68202283F83E207B6800221A63A9
:1053D0007B681B680C33FB64FB6C53E8003FBB64C9
:1053E000BB6C23F01003C7F8AC307B681B680C3330
:1053F000D7F8AC20BA657B65796DBA6D41E80023BA
:105400003B653B6D002BE3D17B689B6B1846FDF73A
:10541000C8FB7B689A8D7B68DB8D9BB2D31A9BB2ED
:105420001946786800F0B6F899E000BF9B5800086C
:105430007B689A8D7B68DB8D9BB2D31AA7F8CE3040
:105440007B68DB8D9BB2002B00F08B80B7F8CE30F1
:10545000002B00F086807B681B680C33BB63BB6B42
:1054600053E8003F7B637B6B23F49073C7F8C8302D
:105470007B681B680C33D7F8C8207A643B64396CAE
:105480007A6C41E80023FB63FB6B002BE3D17B6864
:105490001B6814337B627B6A53E8003F3B623B6AC4
:1054A00023F00103C7F8C4307B681B681433D7F8B6
:1054B000C4203A63FB62F96A3A6B41E80023BB629D
:1054C000BB6A002BE3D17B68202283F83E207B68F7
:1054D00000221A637B681B680C333B613B6953E80D
:1054E000003FFB60FB6823F01003C7F8C0307B6807
:1054F0001B680C33D7F8C020FA61BB61B969FA693F
:1055000041E800237B617B69002BE3D1B7F8CE3003
:105510001946786800F03EF823E0D7F8E43003F04D
:105520008003002B09D0D7F8E03003F08003002B74
:1055300003D0786800F0C5F914E0D7F8E43003F040
:105540004003002B0ED0D7F8E03003F04003002BCF
:1055500008D0786800F005FA04E000BF02E000BF60
:1055600000E000BFE837BD4680BD00BF80B483B017
:1055700000AF786000BF0C37BD465DF8047B704714
:1055800080B483B000AF786000BF0C37BD465DF8D3
:10559000047B704780B483B000AF78600B467B809B
:1055A00000BF0C37BD465DF8047B704780B485B002
:1055B00000AF78600023FB607B6893F83C30012BE0
:1055C00001D1022320E07B68012283F83C207B6824
:1055D000242283F83D207B681B68DB68FB60FB6846
:1055E00023F00C03FB60FB6843F00803FB607B685F
:1055F0001B68FA68DA607B68202283F83D207B68AC
:10560000002283F83C20002318461437BD465DF87D
:10561000047B704780B485B000AF78600023FB60E6
:105620007B6893F83C30012B01D1022320E07B689A
:10563000012283F83C207B68242283F83D207B688C
:105640001B68DB68FB60FB6823F00C03FB60FB68F6
:1056500043F00403FB607B681B68FA68DA607B68D0
:10566000202283F83D207B68002283F83C20002321
:1056700018461437BD465DF8047B704780B590B07E
:1056800000AFF860B9603B601346FB7150E0BB6C43
:10569000B3F1FF3F4CD0BB6C002B07D0FCF7CCFB29
:1056A00002463B68D31ABA6C9A4241D2FB681B6827
:1056B0000C33BB62BB6A53E8003F7B627B6A23F416
:1056C000D073FB63FB681B680C33FA6B7A633B6334
:1056D000396B7A6B41E80023FB62FB6A002BE5D152
:1056E000FB681B6814337B617B6953E8003F3B61B7
:1056F0003B6923F00103BB63FB681B681433BA6B7F
:105700003A62FB61F9693A6A41E80023BB61BB690F
:10571000002BE5D1FB68202283F83D20FB68202286
:1057200083F83E20FB68002283F83C2003230FE02F
:10573000FB681B681A68BB681340BA689A420CBFC2
:1057400001230023DBB21A46FB799A429FD0002343
:1057500018464037BD4680BD80B485B000AFF860C4
:10576000B9601346FB80FB68BA689A62FB68FA88E6
:105770009A85FB68FA88DA85FB6800221A64FB6860
:10578000222283F83E20FB68002283F83C20FB683D
:105790001B69002B07D0FB681B68DA68FB681B6875
:1057A00042F48072DA60FB681B685A69FB681B6808
:1057B00042F001025A61FB681B68DA68FB681B68EB
:1057C00042F02002DA60002318461437BD465DF827
:1057D000047B704780B495B000AF78607B681B682D
:1057E0000C337B637B6B53E8003F3B633B6B23F4E1
:1057F0009073FB647B681B680C33FA6C3A64FB6340
:10580000F96B3A6C41E80023BB63BB6B002BE5D11D
:105810007B681B6814333B623B6A53E8003FFB61C3
:10582000FB6923F00103BB647B681B681433BA6C0B
:10583000FA62BB62B96AFA6A41E800237B627B6A5A
:10584000002BE5D17B681B6B012B19D17B681B6892
:105850000C33FB60FB6853E8003FBB60BB6823F080
:1058600010037B647B681B680C337A6CBA617B61C4
:105870007969BA6941E800233B613B69002BE5D1B6
:105880007B68202283F83E207B6800221A6300BFD9
:105890005437BD465DF8047B704780B584B000AFD7
:1058A00078607B689B6BFB60FB680022DA85FB6895
:1058B0000022DA84F868FFF763FE00BF1037BD46A8
:1058C00080BD80B485B000AF78607B6893F83D30D0
:1058D000DBB2212B3ED17B689B68B3F5805F14D18E
:1058E0007B681B69002B10D17B681B6AFB60FB681F
:1058F0001B881A467B681B68C2F308025A607B68E3
:105900001B6A9A1C7B681A6208E07B681B6A591C38
:105910007A6811621A787B681B685A607B68DB8C36
:105920009BB2013B9BB27A681946D184002B0FD100
:105930007B681B68DA687B681B6822F08002DA608B
:105940007B681B68DA687B681B6842F04002DA609B
:10595000002300E0022318461437BD465DF8047B9F
:10596000704780B582B000AF78607B681B68DA68EA
:105970007B681B6822F04002DA607B68202283F893
:105980003D207868FFF7F2FD002318460837BD4632
:1059900080BD80B58CB000AF78607B6893F83E30F6
:1059A000DBB2222B40F0AB807B689B68B3F5805F55
:1059B00017D17B681B69002B13D10023FB627B6826
:1059C0009B6ABB627B681B685B689BB2C3F308037E
:1059D0009AB2BB6A1A807B689B6A9A1C7B689A623F
:1059E00026E07B689B6AFB620023BB627B689B6846
:1059F000B3F5805F07D07B689B68002B0AD17B687A
:105A00001B69002B06D17B681B685B68DAB2FB6AF6
:105A10001A7008E07B681B685B68DBB203F07F03E9
:105A2000DAB2FB6A1A707B689B6A5A1C7B689A62BE
:105A30007B68DB8D9BB2013B9BB27A681946D185AE
:105A4000002B5AD17B681B68DA687B681B6822F0E0
:105A50002002DA607B681B68DA687B681B6822F4C6
:105A60008072DA607B681B685A697B681B6822F069
:105A700001025A617B68202283F83E207B681B6B01
:105A8000012B35D17B6800221A637B681B680C33BD
:105A90007B617B6953E8003F3B613B6923F0100366
:105AA0007B627B681B680C337A6A3A62FB61F96936
:105AB0003A6A41E80023BB61BB69002BE5D17B68F2
:105AC0001B681B6803F01003102B0AD10023FB6036
:105AD0007B681B681B68FB607B681B685B68FB60FE
